:100000000C9471000C94D8030C94B1030C949900D7
:100010000C9499000C9499000C9499000C949900FC
:100020000C9499000C9499000C9499000C949900EC
:100030000C9499000C9499000C9499000C949900DC
:100040000C9467030C9499000C9499000C949900FB
:100050000C9499000C9499000C9499000C949900BC
:100060000C9499000C94990005A84CCDB2D44EB9CB
:100070003836A9020C50B9918688083CA6AAAA2A4B
:10008000BE000000803F0000000023002600290081
:1000900000000000240027002A00000000002500C6
:1000A00028002B00040404040404040402020202D5
:1000B000020203030303030301020408102040802B
:1000C00001020408102001020408102000000008AA
:1000D000000201000003040700000000000000000F
:1000E000FF0611241FBECFEFD8E0DEBFCDBF11E069
:1000F000A0E0B1E0E4E3F4E102C005900D92A83481
:10010000B107D9F721E0A8E4B1E001C01D92A738FA
:10011000B207E1F710E0C1E7D0E004C02197FE018B
:100120000E94120AC037D107C9F70E94FF030C943E
:10013000180A0C94000081E090E0209104013091B5
:100140000501232B11F090E080E09093050180934E
:10015000040181E090E02091590130915A01232B54
:1001600011F090E080E090935A0180935901089536
:10017000AF92BF92CF92DF92EF92FF920F931F93B5
:10018000CF93DF936C017B018B01040F151FEB01F3
:100190005E01AE18BF08C017D10759F06991D601AA
:1001A000ED91FC910190F081E02DC6010995892B1C
:1001B00079F7C501DF91CF911F910F91FF90EF90DB
:1001C000DF90CF90BF90AF900895833081F028F4F6
:1001D000813099F08230A9F008958730A9F08830F5
:1001E000C9F08430B1F4809180008F7D03C080918C
:1001F00080008F7780938000089584B58F7784BDC9
:10020000089584B58F7DFBCF8091B0008F77809368
:10021000B00008958091B0008F7DF9CF1F93CF93E8
:10022000DF93282F30E0F901E453FF4F8491F90167
:10023000E854FF4FD491F901EC55FF4FC491CC2302
:10024000A9F0162F81110E94E500EC2FF0E0EE0FCF
:10025000FF1FE656FF4FA591B4918FB7F894EC912C
:10026000111108C0D095DE23DC938FBFDF91CF91B1
:100270001F910895DE2BF8CFCF93DF9390E0FC0120
:10028000E854FF4F24918C559F4FFC0184918823A3
:10029000D1F090E0880F991FFC01E057FF4FA59126
:1002A000B491FC01E656FF4FC591D49161110EC087
:1002B0009FB7F8948C91E22FE0958E238C93288140
:1002C000E223E8839FBFDF91CF9108958FB7F89421
:1002D000EC91E22BEC938FBFF6CF0895089590E058
:1002E00080E00895CF92DF92EF92FF92CF93DF9359
:1002F0008FB7F894C0904D01D0904E01E0904F011F
:10030000F09050018FBF8091480190914901A091D8
:100310004A01B0914B01A7019601281B390B4A0BEA
:100320005B0BDA01C9010697A105B10550F1E0EDBB
:10033000F0E08491ECEBF0E0D491E8EAF0E0C491D5
:10034000CC2331F181110E94E500EC2FF0E0EE0F9B
:10035000FF1FEA57FF4FA591B491EC91DE23C1F046
:1003600080916D0190916E01019690936E01809342
:100370006D01C0924801D0924901E0924A01F09289
:100380004B01DF91CF91FF90EF90DF90CF900895D8
:1003900080916D0190916E010197E7CFFC01019072
:1003A0000020E9F73197AF01481B590BBC018FE6DC
:1003B00091E00C94B8008F929F92AF92BF920F93EE
:1003C0001F93CF93DF93CDB7DEB7A1970FB6F89405
:1003D000DEBF0FBECDBF19A2423008F44AE08E0145
:1003E0000F5D1F4F842E912CB12CA12CA5019401DF
:1003F0000E94F009E62FB901CA01EA30F4F4E05D89
:10040000D801EE938D01232B242B252B79F790E037
:1004100080E0109719F0CD010E94CE01A1960FB691
:10042000F894DEBF0FBECDBFDF91CF911F910F912A
:10043000BF90AF909F908F900895E95CE1CFCF93EC
:10044000DF93EC0160E08E810E940E0161E08E81FD
:100450000E940E0160E08E810E940E018BE891E007
:100460000197F1F7DF91CF910895CF92DF92EF924C
:10047000FF920F931F93CF93DF936C017C0187E072
:10048000E80EF11CD0E0C0E0062F10E0B8010C2E01
:1004900002C0759567950A94E2F76170F701819142
:1004A0007F010E940E012196C430D10579F7C60163
:1004B000DF91CF911F910F91FF90EF90DF90CF9040
:1004C0000C941F02CF92DF92EF92FF920F931F9333
:1004D000CF93DF93EC01F62E642F8C810E940E01E6
:1004E0008D818F3F19F060E00E940E010F2D10E00A
:1004F0008F8584FF25C06E0187E0C80ED11CF12CCA
:10050000E12CB8010E2C02C0759567950A94E2F7AC
:100510006170F60181916F010E940E01FFEFEF1AE9
:10052000FF0A88E0E816F10461F7CE01DF91CF9170
:100530001F910F91FF90EF90DF90CF900C941F02CE
:10054000B80184E0759567958A95E1F7CE010E9420
:1005500035026F2DCE01DF91CF911F910F91FF904A
:10056000EF90DF90CF900C94350240E0682F8FE63B
:1005700091E00C946202CF93DF93823029F4909142
:100580007E01986090937E01809382011092830196
:1005900080E48093840180E18093850180E58093ED
:1005A000860161E0809173010E943C018091740199
:1005B0008F3F19F061E00E943C0161E0809175017C
:1005C0000E943C01CFE6D1E09E012F563140809140
:1005D0007E0184FD0BC084E090E021962817390746
:1005E00044F461E08E810E943C01EECF88E090E00F
:1005F000F4CF8BE39DE00197F1F760E08091730108
:100600000E940E0160E0809175010E940E018091B0
:1006100074018F3F19F060E00E940E0180917E010D
:1006200084FD39C063E08FE691E00E943502CBE49F
:10063000D6E4CE010197F1F763E08FE691E00E94E6
:1006400035022197F1F763E08FE691E00E943502D1
:1006500083E592E00197F1F762E08FE691E00E9476
:10066000350280917E0180620E94B50284E0809311
:100670007F018CE00E94B50281E00E94B5028BE30D
:100680009FE10197F1F782E08093800186E0DF919E
:10069000CF910C94B50280620E94B5028BE496E47F
:1006A0000197F1F780917E0180620E94B50283E597
:1006B00092E00197F1F780917E0180620E94B5027D
:1006C000D0CF41E00E94620281E090E008951F9245
:1006D0000F920FB60F9211242F933F938F939F93F6
:1006E000AF93BF9380914D0190914E01A0914F0126
:1006F000B091500130914C0123E0230F2D3758F574
:100700000196A11DB11D20934C0180934D01909342
:100710004E01A0934F01B0935001809151019091EF
:100720005201A0915301B09154010196A11DB11D38
:100730008093510190935201A0935301B0935401BF
:10074000BF91AF919F918F913F912F910F900FBECD
:100750000F901F90189526E8230F0296A11DB11D3A
:10076000D2CF1F920F920FB60F9211242F933F9367
:100770004F935F936F937F938F939F93AF93BF93A9
:10078000EF93FF93E0910201F09103010995FF912E
:10079000EF91BF91AF919F918F917F916F915F91F9
:1007A0004F913F912F910F900FBE0F901F90189572
:1007B0001F920F920FB60F9211242F933F934F93D6
:1007C0005F936F937F938F939F93AF93BF93EF93B9
:1007D000FF93E0910001F09101010995FF91EF91E4
:1007E000BF91AF919F918F917F916F915F914F9149
:1007F0003F912F910F900FBE0F901F901895CF93A0
:10080000DF93CDB7DEB728970FB6F894DEBF0FBEE3
:10081000CDBF789484B5826084BD84B5816084BD89
:1008200085B5826085BD85B5816085BD80916E008E
:10083000816080936E0010928100809181008260BF
:1008400080938100809181008160809381008091FC
:1008500080008160809380008091B10084608093EB
:10086000B1008091B00081608093B00080917A00E7
:10087000846080937A0080917A00826080937A000D
:1008800080917A00816080937A0080917A008068FC
:1008900080937A001092C10060E082E00E943C01E7
:1008A00060E084E00E943C0160E083E00E943C0143
:1008B00061E087E00E943C0161E086E00E943C012B
:1008C00061E085E00E943C0182E00E94BB0282E17F
:1008D00091E00E94CE0182E791E090930101809324
:1008E000000180916900836080936900E89A8BE938
:1008F00090E09093030180930201809169008C60E5
:1009000080936900E99A01ED10E0BFB6F894609019
:100910006D0170906E01B301072C000C880B990BD0
:100920000E94390869837A838B839C83BFBE3FB75B
:10093000F8948091510190915201A0915301B0918E
:10094000540126B5A89B05C02F3F19F00196A11DA3
:10095000B11D3FBFBA2FA92F982F8827820F911D55
:10096000A11DB11D6C017D0142E0CC0CDD1CEE1C13
:10097000FF1C4A95D1F78091690190916A01A0917D
:100980006B01B0916C01A7019601281B390B4A0B32
:100990005B0BCA01B9010E94390820E034E244E748
:1009A00059E40E948F074B015C01609167017091CF
:1009B0006801072E000C880B990B0E9439089B01D7
:1009C000AC0169817A818B819C810E941D07A50100
:1009D00094010E948F077092680160926701C09233
:1009E0006901D0926A01E0926B01F0926C0120E003
:1009F00030E046E154E40E948F0720E030E040E719
:100A000052E40E94EE086D837E838F8398872EEBDD
:100A10003FE94AE55FE36091630170916401809171
:100A20006501909166010E94EE082B013C012BE2CA
:100A300038E145E95DE36D817E818F8198850E9473
:100A4000EE089B01AC01C301B2010E941E072B01FD
:100A50003C012BE238E145E95DE360915F01709173
:100A6000600180916101909162010E94EE089B01FA
:100A7000AC01C301B2010E941E072B013C01409250
:100A800063015092640160926501709266018D81EC
:100A90009E81AF81B88580935F0190936001A093A0
:100AA0006101B0936201C701B6010E94390820E0DC
:100AB00034E244E759E40E948F070E945B0920E07A
:100AC00030E0A9010E94E90818160CF4B3C060E0F8
:100AD00070E0CB01A30192010E941D072B013C0194
:100AE000AC019B01C501B4010E94EE0820915B019D
:100AF00030915C0140915D0150915E010E941E07A2
:100B00004B015C0180925B0190925C01A0925D01BF
:100B1000B0925E0120E030E040EA50E4C301B2014F
:100B20000E94EE082B013C0120E030E040E251E45D
:100B3000C501B4010E94EE089B01AC01C301B201E2
:100B40000E941E074B015C01E894B7F820E030E0FA
:100B50004FE753E4C501B4010E94E908181634F4C4
:100B6000812C912C8BE1A82E83E4B82E6091040196
:100B700087E00E940E016091590186E00E940E01FB
:100B8000C501B4010E9401082B015B0161E085E011
:100B90000E943C014114510409F051C060E085E01D
:100BA0000E940E012EEB3FE942E05FE369817A810A
:100BB0008B819C810E94EE086B017C01C0925501E3
:100BC000D0925601E0925701F0925801E0918201D3
:100BD000E23008F07CC0E150F0E0E159FE4F84893A
:100BE00080680E94B502A7019601C701B6010E9464
:100BF0006309882309F46DC083E291E00E94CE016D
:100C0000E0918201E23008F0F8C0E150F0E0E159F3
:100C1000FE4F8489895F80680E94B5028FE291E06F
:100C20000E94CE0120E030E0232B09F46ECE0E941A
:100C300000006BCE60E070E088EC92E44BCF9FEF59
:100C40004916510411F461E0AACFF8018491833070
:100C500021F148F48130B9F08230D1F0F0E8AF16DC
:100C6000B1048CF79BCF873011F1883041F184308B
:100C7000A9F78091800080628093800050928B0061
:100C800040928A008FCF84B5806884BD47BC8ACFEC
:100C900084B5806284BD48BC85CF80918000806827
:100CA0008093800050928900409288007BCF809191
:100CB000B00080688093B0004092B30073CF809101
:100CC000B00080628093B0004092B4006BCFE1E04E
:100CD00083CF46015701E894B7F82FEF3FEF4FE776
:100CE0005FE7C501B4010E94630981110DC02FEFB8
:100CF0003FEF4FE75FE7C501B4010E948A0718166E
:100D00001CF487E291E07ACF2FEF3FEF4FE75FE4EB
:100D1000C701B6010E94E90818161CF48BE291E0A5
:100D20006DCF2FEF3FEF4FE75FECC701B6010E9499
:100D30008A0787FDF3CF20E030E0A901C701B601A3
:100D40000E948A0787FF0AC041E06DE28FE691E0CA
:100D50000E946202F7FAF094F7F8F0942AE037ED77
:100D600043EA5BE3C701B6010E941E074B015C0129
:100D70000E9408086B017C010E9437089B01AC01AE
:100D8000C501B4010E941D074B015C014AE0C70187
:100D9000B6010E94DB0141E06EE28FE691E00E9425
:100DA000620220E030E040E251E4C501B4010E945B
:100DB000EE084B015C010E9408086B01F12CE12C4C
:100DC0004AE0C701B6010E94DB01C701B6010E94DB
:100DD00037089B01AC01C501B4010E941D0720E04A
:100DE00030E040E251E40E94EE080E94080890E0E2
:100DF00080E04AE00E94DB0103CFE1E007CFEFE6AD
:100E0000F1E0138212828AE091E0918380838EE088
:100E100084838FEF85838DE086838CE087838BE0EE
:100E200080878AE0818789E0828713861486158609
:100E30001686178681E00C94BB025058BB27AA2760
:100E40000E9435070C94AF080E94A10838F00E9458
:100E5000A80820F039F49F3F19F426F40C949E085A
:100E60000EF4E095E7FB0C949808E92F0E94C00867
:100E700058F3BA17620773078407950720F079F4CF
:100E8000A6F50C94E2080EF4E0950B2EBA2FA02DD7
:100E90000B01B90190010C01CA01A0011124FF2727
:100EA000591B99F0593F50F4503E68F11A16F04022
:100EB000A22F232F342F4427585FF3CF4695379521
:100EC0002795A795F0405395C9F77EF41F16BA0BE6
:100ED000620B730B840BBAF09150A1F0FF0FBB1F94
:100EE000661F771F881FC2F70EC0BA0F621F731FDD
:100EF000841F48F4879577956795B795F7959E3F3A
:100F000008F0B0CF9395880F08F09927EE0F9795CA
:100F1000879508950E94740808F481E008950E945E
:100F2000A3070C94AF080E94A80858F00E94A108DB
:100F300040F029F45F3F29F00C94980851110C946B
:100F4000E3080C949E080E94C00868F39923B1F34B
:100F5000552391F3951B550BBB27AA2762177307DF
:100F6000840738F09F5F5F4F220F331F441FAA1F73
:100F7000A9F335D00E2E3AF0E0E832D0915050402F
:100F8000E695001CCAF72BD0FE2F29D0660F771FDD
:100F9000881FBB1F261737074807AB07B0E809F0C3
:100FA000BB0B802DBF01FF2793585F4F3AF09E3F48
:100FB000510578F00C9498080C94E3085F3FE4F333
:100FC000983ED4F3869577956795B795F7959F5F8B
:100FD000C9F7880F911D9695879597F90895E1E0D7
:100FE000660F771F881FBB1F621773078407BA0736
:100FF00020F0621B730B840BBA0BEE1F88F7E09591
:1010000008950E9408086894B1110C94E3080895AB
:101010000E94C80888F09F5798F0B92F9927B751B8
:10102000B0F0E1F0660F771F881F991F1AF0BA958C
:10103000C9F714C0B13091F00E94E208B1E0089500
:101040000C94E208672F782F8827B85F39F0B93FF2
:10105000CCF3869577956795B395D9F73EF490953F
:101060008095709561957F4F8F4F9F4F0895E894BD
:1010700009C097FB3EF490958095709561957F4FE0
:101080008F4F9F4F9923A9F0F92F96E9BB2793958E
:10109000F695879577956795B795F111F8CFFAF49E
:1010A000BB0F11F460FF1BC06F5F7F4F8F4F9F4FCF
:1010B00016C0882311F096E911C0772321F09EE82D
:1010C000872F762F05C0662371F096E8862F70E093
:1010D00060E02AF09A95660F771F881FDAF7880F6D
:1010E0009695879597F90895990F0008550FAA0BC3
:1010F000E0E8FEEF16161706E807F907C0F012162B
:101100001306E407F50798F0621B730B840B950B2D
:1011100039F40A2661F0232B242B252B21F4089582
:101120000A2609F4A140A6958FEF811D811D08951F
:1011300097F99F6780E870E060E008959FEF80EC8A
:10114000089500240A94161617061806090608952D
:1011500000240A9412161306140605060895092E93
:101160000394000C11F4882352F0BB0F40F4BF2B02
:1011700011F460FF04C06F5F7F4F8F4F9F4F089542
:1011800057FD9058440F551F59F05F3F71F0479538
:10119000880F97FB991F61F09F3F79F0879508951D
:1011A000121613061406551FF2CF4695F1DF08C03C
:1011B000161617061806991FF1CF86957105610559
:1011C00008940895E894BB2766277727CB0197F901
:1011D00008950E94740808F48FEF08950E94010991
:1011E0000C94AF080E94A10838F00E94A80820F0D3
:1011F000952311F00C9498080C949E0811240C94DB
:10120000E3080E94C00870F3959FC1F3950F50E06A
:10121000551F629FF001729FBB27F00DB11D639FA8
:10122000AA27F00DB11DAA1F649F6627B00DA11D4E
:10123000661F829F2227B00DA11D621F739FB00DF4
:10124000A11D621F839FA00D611D221F749F332764
:10125000A00D611D231F849F600D211D822F762FFD
:101260006A2F11249F5750409AF0F1F088234AF0DA
:10127000EE0FFF1FBB1F661F771F881F9150504046
:10128000A9F79E3F510580F00C9498080C94E30850
:101290005F3FE4F3983ED4F3869577956795B795CD
:1012A000F795E7959F5FC1F7FE2B880F911D9695E7
:1012B000879597F908959F930E946A090F9007FCFC
:1012C000EE5F0C9493090E947408880B990B0895A3
:1012D0000C949E080E94C808D8F3E894E0E0BB276D
:1012E0009F57F0F02AED3FE049EC06C0EE0FBB0F30
:1012F000661F771F881F28F0B23A620773078407BA
:1013000028F0B25A620B730B840BE3959A9572F72F
:10131000803830F49A95BB0F661F771F881FD2F76D
:1013200090480C94A909EF93E0FF07C0A2EA2AEDC8
:101330003FE049EC5FEB0E9435070E94AF080F9039
:10134000039401FC9058E8E6F0E00C94B5099F3F47
:1013500031F0915020F4879577956795B795880F70
:10136000911D9695879597F908959F938F937F93F5
:101370006F93FF93EF939B01AC010E94EE08EF91F6
:10138000FF910E94C9092F913F914F915F910C9459
:10139000EE08DF93CF931F930F93FF92EF92DF92AC
:1013A0007B018C01689406C0DA2EEF010E940109CE
:1013B000FE01E894A5912591359145915591A6F3AB
:1013C000EF010E943507FE019701A801DA9469F741
:1013D000DF90EF90FF900F911F91CF91DF910895D3
:1013E000A1E21A2EAA1BBB1BFD010DC0AA1FBB1F29
:1013F000EE1FFF1FA217B307E407F50720F0A21B9B
:10140000B30BE40BF50B661F771F881F991F1A9407
:1014100069F760957095809590959B01AC01BD0131
:10142000CF010895EE0FFF1F0590F491E02D099470
:04143000F894FFCF5E
:101434006D016D010100000000006103B8006F013F
:101444006E014D45415355524E494E47205748452C
:10145400454C006E616E00696E66006F76660063CF
:101464006D204D6F646966696361646F2041206D0E
:0814740069206D6F646F000038
:00000001FF
