:020000040000FA
:100000000C9441010C9472010C9472010C947201D5
:100010000C9472010C9472010C9472010C94720194
:100020000C9472010C9472010C9472010C94720184
:100030000C9472010C9472010C9472010C94720174
:100040000C9472010C9472010C9472010C94720164
:100050000C9472010C9472010C9472010C94F00ACD
:100060000C9472010C94BA0A0C94900A0C947201CC
:100070000C9472010C9472010C9472010C94720134
:100080000C9472010C9472010C9472010C94720124
:100090000C9472010C9472010C9472010C943A0B42
:1000A0000C9472010C9472010C9472010C94720104
:1000B0000C9472010C9472010C9472010C947201F4
:1000C0000C9472010C9472010C9472010C947201E4
:1000D0000C9472010C9472010C9472010C947201D4
:1000E0000C9472010C948A030C9408080C94B302CB
:1000F0000C945A0C0C94E1030C9475030C94B40307
:100100000C9494030C9479030C9498030C947B0244
:100110000C9400030C9456060C9455060C949C0306
:100120000C9484030C94AF030C94A2030C948103ED
:100130000C94B0030C9452040C94A6030C94120477
:100140000C946D020C947D030C941D020C944A02D5
:100150000C94AA030C946F030C9459020C948E0314
:1001600000002100240027002A002D003000330069
:1001700001010000040107010A010000220025001E
:1001800028002B002E003100340002010000050180
:1001900008010B01000020002300260029002C008C
:1001A0002F003200000100000301060109010505CE
:1001B0000505070508080808020202020A0A0808DD
:1001C000040404040101010101010101030303030B
:1001D00003030303040707070C0C0C0C0C0C0C0C9A
:1001E0000202020206060606060606060B0B0B0BAB
:1001F0000B0B0B0B010210202008081020401020D0
:1002000040800201020108040201010204081020DA
:1002100040808040201008040201800402018040D8
:100220002010080402010804020101020408102041
:100230004080010204081020408000000A0B0209DF
:100240000C0D0E0807030401000000000000000070
:10025000000000000000000000000000000000009E
:10026000000000000000121110000000000000005B
:10027000000000000000000000000000000000007E
:100280005A0C11241FBECFEFD1E2DEBFCDBF00E07C
:100290000CBF24E0AEEFB2E001C01D92A73AB20756
:1002A000E1F712E0A0E0B2E0E2E9F8E200E00BBF23
:1002B00002C007900D92AE3FB107D9F711E0C1E43B
:1002C000D1E000E006C021970109802FFE010E94C5
:1002D0002912C034D10780E00807A9F70E94130D46
:1002E0000C9447140C94000096E0899FD0011124CF
:1002F000A45EBB4F90967C936E935F9791E091962E
:100300009C939197E0918904F0918A0490918804DC
:10031000992339F0309751F0811108C08091380449
:100320001994309719F05C968C91FACF0895CF927A
:10033000DF92EF92FF920F931F9396E0899FF00157
:100340001124E45EFB4F11A2278D30A1213031052D
:1003500051F178F02230310509F451C023303105D4
:1003600009F452C01F910F91FF90EF90DF90CF9052
:1003700008956623B9F361E070E00E9474012FB71D
:10038000F89480917B0390917C03A0917D03B091C0
:100390007E032FBF8093740490937504A09376041A
:1003A000B0937704DFCF9FB7F894C0907B03D090D1
:1003B0007C03E0907D03F0907E039FBF0091740466
:1003C000109175042091760430917704C01AD10AF7
:1003D000E20AF30A009186041091870430E020E0DD
:1003E0000C151D052E053F0550F462E070E01F91CD
:1003F0000F91FF90EF90DF90CF900C9474016111FA
:10040000B1CF63E070E0F3CF70E060E0F0CF8091B7
:100410007B00877F80937B0082E480937C008091C7
:100420007A00806480937A0080917A0086FDFCCF08
:1004300080917800909179000895AF92BF92CF9209
:10044000DF92EF92FF920F931F93CF93DF936C0194
:100450007B018B01040F151FEB015E01AE18BF0875
:10046000C017D10759F06991D601ED91FC91019027
:10047000F081E02DC6011995892B79F7C501DF912F
:10048000CF911F910F91FF90EF90DF90CF90BF9091
:10049000AF900895FC01538D448D252F30E0842FBB
:1004A00090E0821B930B541710F0CF96089501979C
:1004B0000895FC01918D828D981761F0A28DAE0F89
:1004C000BF2FB11D5D968C91928D9F5F9F73928F10
:1004D00090E008958FEF9FEF0895FC01918D828D3C
:1004E000981731F0828DE80FF11D858D90E0089509
:1004F0008FEF9FEF0895FC01918D228D892F90E061
:10050000805C9F4F821B91098F73992708958FE715
:1005100093E00E947B0221E0892B09F420E0822FE6
:100520000895FC01A48DA80FB92FB11DA35ABF4F88
:100530002C91848D90E001968F739927848FA689E2
:10054000B7892C93A089B1898C91837080648C9336
:10055000938D848D981306C00288F389E02D8081E5
:100560008F7D80830895EF92FF920F931F93CF9317
:10057000DF93EC0181E0888F9B8D8C8D98131AC0DE
:10058000E889F989808185FF15C09FB7F894EE89C5
:10059000FF896083E889F989808183708064808322
:1005A0009FBF81E090E0DF91CF911F910F91FF906D
:1005B000EF900895F62E0B8D10E00F5F1F4F0F7315
:1005C0001127E02E8C8D8E110CC00FB607FCFACFD0
:1005D000E889F989808185FFF5CFCE010E949102DB
:1005E000F1CFEB8DEC0FFD2FF11DE35AFF4FF082A1
:1005F0009FB7F8940B8FEA89FB8980818062CFCF07
:10060000CF93DF93EC01888D8823B9F0AA89BB8949
:10061000E889F9898C9185FD03C0808186FD0DC034
:100620000FB607FCF7CF8C9185FFF2CF808185FF55
:10063000EDCFCE010E949102E9CFDF91CF910895D5
:1006400080E090E0892B29F00E94870281110E94AE
:10065000000080E090E0892B49F080E090E0892B59
:1006600029F00E94000081110E94000080E090E0CB
:10067000892B49F080E090E0892B29F00E9400004E
:1006800081110E94000080E090E0892B49F080E019
:1006900090E0892B29F00E94000081110C94000049
:1006A00008958150823108F05AC0E82FF0E0882781
:1006B000E35AFC4F8F4F0C9429127D0381036F0383
:1006C00075037903AF0384038A038E0394039803AD
:1006D0009C03A203A603AF03AA03B003B403809153
:1006E00080008F77809380000895809180008F7DB7
:1006F000F9CF80918000877FF5CF84B58F7784BD57
:10070000089584B58F7DFBCF8091B0008F77809363
:10071000B00008958091B0008F7DF9CF8091900056
:100720008F77809390000895809190008F7DF9CF0E
:1007300080919000877FF5CF8091A0008F77809384
:10074000A00008958091A0008F7DF9CF8091A00036
:10075000877FF5CF809120018F77809320010895C6
:10076000809120018F7DF9CF80912001877FF5CF87
:10077000CF93DF93282F30E0F901E65CFD4F8491A1
:10078000F901EC50FE4FD491F901E255FE4FC491AE
:10079000CC23A1F081110E945103EC2FF0E0EE0F69
:1007A000FF1FEC56FE4FA591B491EC91ED2381E033
:1007B00090E009F480E0DF91CF91089580E090E02F
:1007C000FACF862F0C94B8031F93CF93DF93282F73
:1007D00030E0F901E65CFD4F8491F901EC50FE4FE9
:1007E000D491F901E255FE4FC491CC23A9F0162F04
:1007F00081110E945103EC2FF0E0EE0FFF1FE6582D
:10080000FE4FA591B4918FB7F894EC91111108C0E7
:10081000D095DE23DC938FBFDF91CF911F91089598
:10082000DE2BF8CF862F642F0C94E403CF93DF9355
:1008300090E0FC01EC50FE4F249182559E4FFC014C
:1008400084918823C9F090E0880F991FFC01E05A39
:10085000FE4FA591B491FC01E658FE4FC591D4918D
:1008600061110DC09FB7F8948C91209582238C93D1
:100870008881282328839FBFDF91CF91089562301C
:1008800051F49FB7F8943C91822F809583238C93E9
:10089000E8812E2BEFCF8FB7F894EC912E2B2C9371
:1008A0008FBFEACF862F642F0C9416046F927F922D
:1008B0008F929F92AF92BF92CF92DF92EF92FF9270
:1008C0000F931F93CF93DF9381E0809388048FB7BA
:1008D000F89440917B0350917C0360917D0370916B
:1008E0007E038FBF8091780490917904A0917A045F
:1008F000B0917B04481B590B6A0B7B0B80918404DD
:1009000090918504B0E0A0E084179507A607B7078B
:1009100008F01DC1C0E080918204C81760F4E09126
:100920007E04F0917F04EC0FF11D62E080810E9453
:100930001604CF5FF0CF712C812C912C540183943D
:1009400080918304781608F05FC0072D10E0E091D5
:100950008004F0918104E00FF11F61E080810E942A
:100960001604E0918004F0918104E00FF11F60E033
:1009700080810E94E403D501C401072C04C0880FC4
:10098000991FAA1FBB1F0A94D2F76C017C01E09447
:10099000F094612C809182046816F8F4C62DD0E0A2
:1009A000E0917E04F0917F04EC0FFD1F80810E9496
:1009B000B8032496CC0FDD1FC45EDB4F892B41F4B6
:1009C000888199818C299D29998388836394E2CFBA
:1009D000888199818E219F21F7CFE0918004F09149
:1009E0008104E00FF11F61E080810E94E4038091A7
:1009F000800490918104080F191F60E0F801808144
:100A00000E94160473949CCFCCE1D4E0FE018FEFDA
:100A10009FEF278D30A1232B21F4148E968F858F85
:100A200011A2369624E0E835F20799F7F12C96E00A
:100A3000D92E80918204F81608F050C0E12C0F2DB9
:100A400010E0000F111F0C5D1B4F20918304E21674
:100A500008F042C0F801608171810E2C02C07695C9
:100A600067950A94E2F7F29E900111242E0D311D34
:100A7000ECE1F4E080E0458D568D2417350709F44C
:100A80006AC08F5F36968A30B1F760FF23C0ECE111
:100A9000F4E090E080E0448D411117C0E0917C04C7
:100AA000F0917D04E20FF31F4081D89EF001D99EA2
:100AB000F00D1124E45EFB4F448F368F258F10A27A
:100AC000178E61E00E94970105C0019636968A3024
:100AD000910509F7E394B9CFF394ABCF80E099A1E6
:100AE0009111892F2696F4E0C835DF07C1F79FB72B
:100AF000F89440917B0350917C0360917D03709149
:100B00007E039FBF409378045093790460937A04E6
:100B100070937B048823D9F080913D048823B9F039
:100B200080913B0490913C04019789F480913804B2
:100B3000DF91CF911F910F91FF90EF90DF90CF90B9
:100B4000BF90AF909F908F907F906F90089510927C
:100B5000880480E0EDCF6170B5CF3FB7F894809105
:100B6000700390917103A0917203B091730326B545
:100B7000A89B05C02F3F19F00196A11DB11D3FBFD5
:100B8000BA2FA92F982F8827BC01CD01620F711DA4
:100B9000811D911D42E0660F771F881F991F4A959E
:100BA000D1F708958F929F92AF92BF92CF92DF922A
:100BB000EF92FF924B015C010E94AD056B017C013D
:100BC0000E94AD056C197D098E099F09683E73402E
:100BD00081059105A8F321E0821A9108A108B108C6
:100BE00088EEC80E83E0D81EE11CF11C811491042C
:100BF000A104B10429F7FF90EF90DF90CF90BF9050
:100C0000AF909F908F90089520912503260F332752
:100C1000331F21323105ECF420914903FC0190E0AF
:100C200080E0243069F082E00895A09125032191AD
:100C3000AC014B5F5C4FA40FB52FB11D2C930196F7
:100C4000861798F380912503680F6093250380E051
:100C5000089581E0089508958FEF9FEF08958FEF35
:100C60009FEF08958091FE0290E091958195910902
:100C70000895CF93DF93CB01EA01642F0E9404060D
:100C8000CE01DF91CF910895CF93DF931F92CDB71F
:100C9000DEB7698361E0CE0101960E94040681E01F
:100CA00090E00F90DF91CF910895089590E080E05B
:100CB0000895FC0101900020E9F73197AF01481B2E
:100CC000590BBC018BE894E00C941D028F929F920B
:100CD000AF92BF920F931F93CF93DF93CDB7DEB741
:100CE000A1970FB6F894DEBF0FBECDBF19A2423058
:100CF00008F44AE08E010F5D1F4F842E912CB12C19
:100D0000A12CA50194010E940712E62FB901CA0186
:100D1000EA30F4F4E05DD801EE938D01232B242B0F
:100D2000252B79F790E080E0109719F0CD010E9413
:100D30005906A1960FB6F894DEBF0FBECDBFDF9166
:100D4000CF911F910F91BF90AF909F908F9008957A
:100D5000E95CE1CF0C945906CF93DF93EC0160E09E
:100D60008E810E94E40361E08E810E94E40360E0D2
:100D70008E810E94E4038BE891E00197F1F7DF9107
:100D8000CF910895CF92DF92EF92FF920F931F932E
:100D9000CF93DF936C017C0187E0E80EF11CD0E07B
:100DA000C0E0062F10E0B8010C2E02C075956795C3
:100DB0000A94E2F76170F70181917F010E94E403D8
:100DC0002196C430D10579F7C601DF91CF911F91EB
:100DD0000F91FF90EF90DF90CF900C94AC06CF92E4
:100DE000DF92EF92FF920F931F93CF93DF93EC016B
:100DF000F62E642F8C810E94E4038D818F3F19F0C1
:100E000060E00E94E4030F2D10E08F8584FF25C071
:100E10006E0187E0C80ED11CF12CE12CB8010E2C1C
:100E200002C0759567950A94E2F76170F6018191A9
:100E30006F010E94E403FFEFEF1AFF0A88E0E81653
:100E4000F10461F7CE01DF91CF911F910F91FF90D7
:100E5000EF90DF90CF900C94AC06B80184E07595CC
:100E600067958A95E1F7CE010E94C2066F2DCE01EB
:100E7000DF91CF911F910F91FF90EF90DF90CF9076
:100E80000C94C20640E0682F8BE894E00C94EF06C7
:100E900081E00E9442078BE39FE10197F1F70895FB
:100EA000CF93DF93823029F490919A0498609093C5
:100EB0009A0480939E0410929F0480E48093A0047F
:100EC00080E18093A10480E58093A20461E0809199
:100ED0008F040E941604809190048F3F19F061E006
:100EE0000E94160461E0809191040E941604CBE8F0
:100EF000D4E09E012B58344080919A0484FD0BC0AD
:100F000084E090E021962817390744F461E08E814F
:100F10000E941604EECF88E090E0F4CF8BE39DE0D2
:100F20000197F1F760E080918F040E94E40360E094
:100F3000809191040E94E403809190048F3F19F006
:100F400060E00E94E40380919A0484FD34C063E071
:100F50008BE894E00E94C206CBE4D6E4CE01019770
:100F6000F1F763E08BE894E00E94C2062197F1F765
:100F700063E08BE894E00E94C20683E592E001976B
:100F8000F1F762E08BE894E00E94C20680919A0437
:100F900080620E94420784E080939B048CE00E9460
:100FA00042070E94480782E080939C0486E0DF911C
:100FB000CF910C94420780620E9442078BE496E432
:100FC0000197F1F780919A0480620E94420783E5BD
:100FD00092E00197F1F780919A0480620E944207A3
:100FE000D5CF90919E04691710F06FEF690FE62F2F
:100FF000F0E0E557FB4F9489890F80680C94420715
:1010000082E00E9442078BE39FE10197F1F7089588
:1010100041E00E94EF0681E090E0089541E0682FF2
:101020008BE894E00E94EF0681E090E008954F92F3
:101030005F926F927F928F929F92AF92BF92CF9268
:10104000DF92EF92FF920F931F93CF936B017C017E
:10105000742EAC019B010E940212882399F088E44F
:1010600092E0CF911F910F91FF90EF90DF90CF9082
:10107000BF90AF909F908F907F906F905F904F90B8
:101080000C94590646015701E894B7F82FEF3FEF4B
:101090004FE75FE7C501B4010E94021281110DC044
:1010A0002FEF3FEF4FE75FE7C501B4010E94B50F97
:1010B00018161CF48CE492E0D4CF2FEF3FEF4FE7EB
:1010C0005FE4C701B6010E94FD1118161CF480E50B
:1010D00092E0C7CF2FEF3FEF4FE75FECC701B601BC
:1010E0000E94B50F87FDF3CF20E030E0A901C701D2
:1010F000B6010E94B50F10E000E087FF08C08DE246
:101100000E940E088C01F7FAF094F7F8F094C0E012
:1011100060E070E080E09FE37C1641F020E030E08A
:1011200040E251E40E945C11CF5FF6CFA701960127
:101130000E94F0102B013C010E94CE114B015C017A
:101140004AE00E9466067C01E00EF11ECC23B1F15C
:10115000C501B4010E94BA0F9B01AC01C301B201E9
:101160000E94EF104B015C018EE20E940E08E80E17
:10117000F91EC15018F120E030E040E251E4C50111
:10118000B4010E941B102B013C010E94CE114B01A7
:10119000B12CA12C4AE0C501B4010E946606E80EFC
:1011A000F91EC501B4010E94BA0F9B01AC01C30135
:1011B000B2010E94EF104B015C01DBCFC701CF9160
:1011C0001F910F91FF90EF90DF90CF90BF90AF9065
:1011D0009F908F907F906F905F904F900895BC018B
:1011E000990F880B990B4AE00C9466060F931F9396
:1011F000CF93DF93EC0188819981009759F02A8180
:101200003B812617370730F081E0DF91CF911F91A6
:101210000F9108958B016F5F7F4F0E9456130097C7
:1012200059F0998388831B830A832C813D81232B6A
:1012300059F7FC011082E8CF80E0E7CFCF93DF932E
:10124000EC0188819981009711F00E94CD121982DA
:1012500018821D821C821B821A82DF91CF91089511
:10126000EF92FF920F931F93CF93DF93EC018617BA
:10127000970781F0FB01008111810115110539F0FB
:10128000E480F580B7010E94F60881110BC0CE0101
:101290000E941E09CE01DF91CF911F910F91FF9007
:1012A000EF900895FD82EC82B801888199810E94B7
:1012B0004014F0CF1F93CF93DF9385ED8093BC0054
:1012C0008091010390910203A0910303B091040364
:1012D0000796A11DB11D23E0B695A7959795879513
:1012E0002A95D1F72091BC0024FD03C01092490338
:1012F00052C0409101035091020360910303709129
:101300000403452B462B472B69F30097A105B10534
:1013100041F025E32A95F1F700000197A109B109F1
:10132000E1CF80910003C1E0C093FF02882399F1CF
:10133000D091B8001091BA008091BC008A7B809354
:10134000BC0060E084E10E94E40360E085E10E946B
:10135000E40310924903C0934B0310924A0361E0E7
:1013600084E10E94E40361E085E10E94E40380914E
:10137000B9008E7F8093B9008091B9008D7F8093F2
:10138000B90088E48093B80085E48093BC00109392
:10139000BA00D093B800DF91CF911F910895EF92DA
:1013A000FF920F931F93CF93DF93CDB7DEB72E97A6
:1013B0000FB6F894DEBF0FBECDBF18861F821A8607
:1013C00019861C861B8670E060E0CE0107960E949D
:1013D000F60881117CC0CE0107960E941E0961E0CB
:1013E00080E00E94F107F12CE12C0E945604182F96
:1013F0008823D9F38093760380ED810F8A3008F03B
:1014000074C08AE20E940E081A8219821C821B8212
:101410001E821D82BE01695F7F4FCE0101960E9430
:1014200030091D871E860D811E810F5F1F4FB80179
:10143000CE0101960E94F608882309F451C0298143
:101440003A818D819E81BE01635F7F4F820F931F22
:101450000E9440141E830D83BE016F5F7F4FCE013B
:1014600007960E94300989819A81009711F00E94A5
:10147000CD128FEFE81AF80A84E0E816F1040CF4B4
:10148000B4CFEF80F8848B859C8510E000E0892B39
:1014900051F060E070E0CB01E114F10419F0C701F4
:1014A0000E94790F8B01E114F10419F0C7010E9429
:1014B000CD12C8012E960FB6F894DEBF0FBECDBF79
:1014C000DF91CF911F910F91FF90EF9008951C86AF
:1014D0001B866CE972E08F8198850E9440147FCF53
:1014E000CE0101960E941E09B7CF143429F60E943E
:1014F00048070E94000884E592E00E94AA068091B5
:1015000000029091010290937503809374036CED37
:1015100075E080E090E00E94D2050E944807B1CFBC
:101520001F920F920FB60F9211240BB60F922F93AA
:101530003F934F935F936F937F938F939F93AF935B
:10154000BF93EF93FF938FE793E00E949102FF9187
:10155000EF91BF91AF919F918F917F916F915F912B
:101560004F913F912F910F900BBE0F900FBE0F9098
:101570001F9018951F920F920FB60F9211240BB661
:101580000F922F938F939F93EF93FF93E0918F038D
:10159000F09190038081E0919503F091960382FD94
:1015A0001DC09081809198038F5F8F732091990364
:1015B000821741F0E0919803F0E0E158FC4F958FDD
:1015C00080939803FF91EF919F918F912F910F90AE
:1015D0000BBE0F900FBE0F901F9018958081F2CF19
:1015E0001F920F920FB60F9211242F933F938F9358
:1015F0009F93AF93BF9380917B0390917C03A091C5
:101600007D03B0917E0330916F0323E0230F2D37CC
:1016100058F50196A11DB11D20936F0380937B03A4
:1016200090937C03A0937D03B0937E03809170031D
:1016300090917103A0917203B09173030196A11D63
:10164000B11D8093700390937103A0937203B093C4
:101650007303BF91AF919F918F913F912F910F9005
:101660000FBE0F901F90189526E8230F0296A11D1C
:10167000B11DD2CF1F920F920FB60F9211240BB64D
:101680000F922F933F934F935F936F937F938F931B
:101690009F93AF93BF93EF93FF938091B900887F9F
:1016A000803609F44DC008F040C0883209F4A7C064
:1016B00028F5803109F49BC0C8F4882309F4F7C0E9
:1016C000883009F494C0FF91EF91BF91AF919F9141
:1016D0008F917F916F915F914F913F912F910F90DB
:1016E0000BBE0F900FBE0F901F901895883109F414
:1016F00086C0803241F78093480314C0803409F4D7
:101700009BC040F48033B9F38833E9F680934803F3
:1017100085ECAEC0803509F483C0883509F494C0E7
:10172000883489F60E945A09CECF883909F48AC0D4
:1017300038F5883729F050F4883611F0803719F6DB
:1017400083E0809349031092470355C0883809F419
:1017500079C0803919F0803809F0B5CF80914703FE
:10176000803208F06FC0E091470381E08E0F8093D4
:1017700047038091BB00F0E0E95DFC4F80833BC0F4
:10178000803B39F0D0F4803A09F477C0883A09F008
:101790009ACF84E080934903109226031092250388
:1017A000F0E0E0E019958091250381110FC081E000
:1017B000809325031092050309C0803C09F4A8CF4B
:1017C000883C09F4A5CF883B09F07DCFE091260342
:1017D00081E08E0F80932603F0E0EB5FFC4F808169
:1017E0008093BB00909126038091250329C08091AE
:1017F0006E038093BB0085EC8093BC0064CF909116
:101800006D0380916C03981758F5E0916D0381E0AA
:101810008E0F80936D03F0E0E45BFC4F8081E9CF95
:10182000E0916D0381E08E0F80936D038091BB008A
:10183000F0E0E45BFC4F808390916D0380916C033A
:101840009817C8F285E8D8CFE0916D0381E08E0F3C
:1018500080936D038091BB00F0E0E45BFC4F8083DC
:1018600080914B0381115ECF81E080934A0384EA2B
:101870008093BC001092490326CF85EC8093BC0076
:101880001092490380914703803230F4E09147037E
:10189000F0E0E95DFC4F10826091470370E087E261
:1018A00093E0F0E0E0E01995109247030CCF10921E
:1018B000480338CF109282031092810388EE93E0A0
:1018C000A0E0B0E08093830390938403A09385030A
:1018D000B093860384E292E09093800380937F0329
:1018E00085EC90E090938C0380938B0384EC90E0E4
:1018F00090938E0380938D0380EC90E090939003FF
:1019000080938F0381EC90E09093920380939103F6
:1019100082EC90E0909394038093930386EC90E0A4
:1019200090939603809395031092980310929903D5
:1019300010929A0310929B0310928E0410928D04C1
:1019400080E492E090938C0480938B0486E38093F0
:101950008F048FEF809390048DE0809391048CE04E
:10196000809392048BE0809393048AE080939404A4
:1019700089E0809395041092960410929704109237
:1019800098041092990410929A0481E00E945007E2
:1019900010921E041092220410922104109223042B
:1019A00086E392E090931D0480931C04E8E3F4E046
:1019B0001082148213821582369684E0E437F80789
:1019C000B9F786E092E090937F0480937E0482E0F2
:1019D00092E0909381048093800484E08093820459
:1019E000809383048AE092E090937D0480937C044A
:1019F0008AE090E0909385048093840484EF91E0E2
:101A0000909387048093860410928A04109289042C
:101A1000109278041092790410927A0410927B0448
:101A2000109288040895CF93DF93CDB7DEB7609707
:101A30000FB6F894DEBF0FBECDBF789484B5826038
:101A400084BD84B5816084BD85B5826085BD85B562
:101A5000816085BD80916E00816080936E001092E0
:101A6000810080918100826080938100809181005B
:101A700081608093810080918000816080938000EC
:101A80008091B10084608093B1008091B00081604A
:101A90008093B0008091910082608093910080914A
:101AA000910081608093910080919000816080938B
:101AB00090008091A10082608093A1008091A1009C
:101AC00081608093A1008091A00081608093A0003C
:101AD00080912101826080932101809121018160A8
:101AE0008093210180912001816080932001809169
:101AF0007A00846080937A0080917A00826080937B
:101B00007A0080917A00816080937A0080917A00D7
:101B1000806880937A001092C10082E00E94500792
:101B2000E0918F03F091900382E08083E0918B033A
:101B3000F0918C031082E0918D03F0918E038FEC75
:101B4000808310929703E0919303F091940386E0D1
:101B50008083E0919103F091920380818061808382
:101B6000E0919103F0919203808188608083E091FD
:101B70009103F0919203808180688083E0919103CA
:101B8000F091920380818F7D80830E94000883E61C
:101B900092E00E94AA0661E080E00E94F10787E7D8
:101BA00092E00E94AA0664EF71E080E090E00E945B
:101BB000D2050E94480788EE93E0909387048093B3
:101BC000860490E080E00E94D9108093740381E045
:101BD00090E00E94D91080937503809174039091D6
:101BE000750320910002309101028217930739F0AA
:101BF0001816190624F4909301028093000225E040
:101C0000D22E0E940702D89EB001D99E700D1124D9
:101C1000072E000C880B990B0E94BC0F20E030ECC3
:101C20004FE754E40E945C1160937703709378034C
:101C30008093790390937A0360E085E00E94F10736
:101C400089E892E00E94AA0661E080E00E94F10724
:101C500081E992E00E94AA0660917703709178036F
:101C60008091790390917A0342E00E9417080E94C4
:101C70005604182F809376038FEB810F833008F082
:101C800076C00E9448070E9400088DE992E00E94F9
:101C9000AA060E94CF099093750380937403209144
:101CA0000002309101028217930709F063C01134DA
:101CB00009F06DC00E9448070E94000881EC92E084
:101CC0000E94AA0602E010E00E940702D89EB0011E
:101CD000D99E700D1124072E000C880B990B0E94C1
:101CE000BC0F20E030EC4FE754E40E945C1160939D
:101CF0007703709378038093790390937A0397E73F
:101D0000A92E93E0B92EF12CE12CF501C1905F01D1
:101D100048018E0C9F1CC4010E94D910C81621F0E6
:101D20006C2DC4010E94E110FFEFEF1AFF0A84E05E
:101D3000E816F10451F768EE73E080E090E00E944D
:101D4000D2050C5F1F4F0231110509F0BDCF0E9473
:101D500048070E94000881ED92E00E94AA0668EB05
:101D60007BE080E090E00E94D2050E9448070E943C
:101D7000200347CF0E9448070E9400088EEA92E0A5
:101D80000E94AA0660ED77E080E090E0ECCF12348C
:101D900009F079C00E9448070E9400088E010F5F79
:101DA0001F4F82E0E82EF12C5801E4E0AE0EB11C8A
:101DB0004701801A910AC401800F911F0E94D91017
:101DC000F80181938F01AE16BF06A9F7F4E0EF0E7C
:101DD000F11C850186E1E816F10431F760E080E04E
:101DE0000E94F10781E090E00E94EF0889E20E94E2
:101DF0000E0869817A818B819C8142E00E941708DC
:101E00008CED92E00E94AA0682E090E00E94EF082A
:101E100089E20E940E086D817E818F81988542E063
:101E20000E9417088CED92E00E94AA0661E080E013
:101E30000E94F10783E090E00E94EF0889E20E948F
:101E40000E0869857A858B859C8542E00E9417087B
:101E50008CED92E00E94AA0684E090E00E94EF08D8
:101E600089E20E940E086D857E858F85988942E003
:101E70000E9417088CED92E00E94AA0668E873E1C0
:101E800080E090E070CF0E9448070E9400088FED2C
:101E900092E00E94AA060E94CF09182F8093740333
:101EA0009093750390E080E00E94D910811729F08B
:101EB000612F90E080E00E94E1101091750381E0B5
:101EC00090E00E94D910811729F0612F81E090E005
:101ED0000E94E11080917403909175039093010228
:101EE000809300020E9448070E9400088DEE92E055
:101EF00047CF1F93FC0199278827BC01E8941191D3
:101F00001032E9F3193010F01E30C8F31B3251F0D3
:101F10001D3249F4689406C00E94A00F610F711D24
:101F2000811D911D119110531A30B0F33EF490951C
:101F30008095709561957F4F8F4F9F4F1F910895AA
:101F4000592F482F372F262F660F771F881F991F6D
:101F5000660F771F881F991F620F731F841F951FBD
:101F6000660F771F881F991F08950E94F70F08F4C6
:101F700081E00895E89409C097FB3EF49095809520
:101F8000709561957F4F8F4F9F4F9923A9F0F92F3F
:101F900096E9BB279395F695879577956795B795BD
:101FA000F111F8CFFAF4BB0F11F460FF1BC06F5FA3
:101FB0007F4F8F4F9F4F16C0882311F096E911C0B5
:101FC000772321F09EE8872F762F05C0662371F0D6
:101FD00096E8862F70E060E02AF09A95660F771FEA
:101FE000881FDAF7880F9695879597F90895990FC6
:101FF0000008550FAA0BE0E8FEEF16161706E807D3
:10200000F907C0F012161306E407F50798F0621BF3
:10201000730B840B950B39F40A2661F0232B242BC8
:10202000252B21F408950A2609F4A140A6958FEFE7
:10203000811D811D08950E942E100C949F100E94F6
:10204000911038F00E94981020F0952311F00C9414
:1020500088100C948E1011240C94D3100E94B01090
:1020600070F3959FC1F3950F50E0551F629FF001EB
:10207000729FBB27F00DB11D639FAA27F00DB11D04
:10208000AA1F649F6627B00DA11D661F829F22278D
:10209000B00DA11D621F739FB00DA11D621F839F14
:1020A000A00D611D221F749F3327A00D611D231FEA
:1020B000849F600D211D822F762F6A2F11249F5738
:1020C00050409AF0F1F088234AF0EE0FFF1FBB1F3B
:1020D000661F771F881F91505040A9F79E3F5105FA
:1020E00080F00C9488100C94D3105F3FE4F3983E7A
:1020F000D4F3869577956795B795F795E7959F5FA4
:10210000C1F7FE2B880F911D9695879597F9089535
:1021100097F99F6780E870E060E008959FEF80EC9A
:10212000089500240A94161617061806090608953D
:1021300000240A9412161306140605060895092EA3
:102140000394000C11F4882352F0BB0F40F4BF2B12
:1021500011F460FF04C06F5F7F4F8F4F9F4F089552
:1021600057FD9058440F551F59F05F3F71F0479548
:10217000880F97FB991F61F09F3F79F0879508952D
:10218000121613061406551FF2CF4695F1DF08C04C
:10219000161617061806991FF1CF86957105610569
:1021A00008940895E894BB2766277727CB0197F911
:1021B0000895F999FECF92BD81BDF89A992780B50F
:1021C0000895262FF999FECF1FBA92BD81BD20BD7B
:1021D0000FB6F894FA9AF99A0FBE019608955058DE
:1021E000BB27AA270E9407110C949F100E949110F0
:1021F00038F00E94981020F039F49F3F19F426F42B
:102200000C948E100EF4E095E7FB0C948810E92FE7
:102210000E94B01058F3BA17620773078407950736
:1022200020F079F4A6F50C94D2100EF4E0950B2E64
:10223000BA2FA02D0B01B90190010C01CA01A00118
:102240001124FF27591B99F0593F50F4503E68F173
:102250001A16F040A22F232F342F4427585FF3CFB4
:10226000469537952795A795F0405395C9F77EF485
:102270001F16BA0B620B730B840BBAF09150A1F0CE
:10228000FF0FBB1F661F771F881FC2F70EC0BA0F54
:10229000621F731F841F48F4879577956795B795DC
:1022A000F7959E3F08F0B0CF9395880F08F09927D7
:1022B000EE0F9795879508950E9470110C949F10CA
:1022C0000E94981058F00E94911040F029F45F3F4E
:1022D00029F00C94881051110C94D3100C948E108A
:1022E0000E94B01068F39923B1F3552391F3951B25
:1022F000550BBB27AA2762177307840738F09F5F27
:102300005F4F220F331F441FAA1FA9F335D00E2E93
:102310003AF0E0E832D091505040E695001CCAF700
:102320002BD0FE2F29D0660F771F881FBB1F2617C3
:1023300037074807AB07B0E809F0BB0B802DBF019A
:10234000FF2793585F4F3AF09E3F510578F00C9469
:1023500088100C94D3105F3FE4F3983ED4F3869535
:1023600077956795B795F7959F5FC9F7880F911D8A
:102370009695879597F90895E1E0660F771F881F76
:10238000BB1F621773078407BA0720F0621B730B29
:10239000840BBA0BEE1F88F7E09508950E94B810E1
:1023A00088F09F5798F0B92F9927B751B0F0E1F016
:1023B000660F771F881F991F1AF0BA95C9F714C0C6
:1023C000B13091F00E94D210B1E008950C94D21077
:1023D000672F782F8827B85F39F0B93FCCF38695FF
:1023E00077956795B395D9F73EF49095809570955C
:1023F00061957F4F8F4F9F4F08950E94F70F08F40C
:102400008FEF08950E94F70F880B990B0895A1E2B2
:102410001A2EAA1BBB1BFD010DC0AA1FBB1FEE1F5E
:10242000FF1FA217B307E407F50720F0A21BB30BA9
:10243000E40BF50B661F771F881F991F1A9469F725
:1024400060957095809590959B01AC01BD01CF0181
:102450000895EE0FFF1F881F8BBF0790F691E02DA8
:1024600019940F931F93CF93DF938230910510F44B
:1024700082E090E0E091A504F091A60430E020E035
:10248000B0E0A0E0309799F42115310509F44AC075
:10249000281B390B24303105D8F58A819B816115C1
:1024A000710589F1FB0193838283FE0111C0408194
:1024B00051810281138148175907E0F048175907E5
:1024C00099F4109761F012960C93129713961C933F
:1024D0003296CF01DF91CF911F910F910895009314
:1024E000A5041093A604F4CF2115310551F042172D
:1024F000530738F0A901DB019A01BD01DF01F801A2
:10250000C1CFEF01F9CF9093A6048093A504CDCF5E
:10251000FE01E20FF31F8193919322503109398319
:102520002883D7CF2091A3043091A404232B41F416
:1025300020911C0230911D023093A4042093A30427
:1025400020911A0230911B022115310541F42DB75B
:102550003EB740911E0250911F02241B350BE091A3
:10256000A304F091A404E217F307A0F42E1B3F0B81
:102570002817390778F0AC014E5F5F4F24173507F5
:1025800048F04E0F5F1F5093A4044093A30481931F
:1025900091939FCFF0E0E0E09CCFCF93DF93009743
:1025A000E9F0FC01329713821282A091A504B09148
:1025B000A604ED0130E020E01097A1F420813181E4
:1025C000820F931F2091A3043091A4042817390788
:1025D00009F061C0F093A404E093A304DF91CF91CC
:1025E0000895EA01CE17DF07E8F54A815B819E0175
:1025F00041155105B1F7E901FB83EA8349915991EE
:10260000C40FD51FEC17FD0761F4808191810296FC
:10261000840F951FE90199838883828193819B832D
:102620008A83F0E0E0E012968D919C9113970097D9
:10263000B9F52D913C911197CD010296820F931F10
:102640002091A3043091A4042817390739F6309754
:1026500051F51092A6041092A504B093A404A0937F
:10266000A304BCCFD383C28340815181840F951FC3
:10267000C817D90761F44E5F5F4F88819981480F71
:10268000591F518340838A819B81938382832115C3
:10269000310509F0B0CFF093A604E093A5049ECFD6
:1026A000FD01DC01C0CF13821282D7CF4F925F921F
:1026B0006F927F928F929F92AF92BF92CF92DF9252
:1026C000EF92FF920F931F93CF93DF938C010097AC
:1026D00099F4CB01DF91CF911F910F91FF90EF9073
:1026E000DF90CF90BF90AF909F908F907F906F9032
:1026F0005F904F900C943112FC01E60FF71F9C0184
:1027000022503109E217F30708F4AEC0D901CD9188
:10271000DC911197C617D70720F1C530D10578F0A5
:10272000CE0104978617970750F0C61BD70B229748
:10273000C193D1936D937C93CF010E94CD12C801B8
:10274000DF91CF911F910F91FF90EF90DF90CF908D
:10275000BF90AF909F908F907F906F905F904F90C1
:1027600008955B01AC1ABD0A4C018C0E9D1EA09110
:10277000A504B091A604512C412CF12CE12C10970A
:1027800031F58091A3049091A4048815990509F06E
:102790005CC04616570608F058C080911A02909106
:1027A0001B02009741F48DB79EB740911E025091D5
:1027B0001F02841B950BE817F90708F055C0F0932A
:1027C000A404E093A304F90171836083B8CF8D91D1
:1027D0009C91119712966C90129713967C90139778
:1027E000A815B90559F56C0142E0C40ED11CCA14F4
:1027F000DB0420F1AC014A195B09DA011296159746
:1028000080F06282738251834083D9016D937C93FF
:10281000E114F10471F0D7011396FC93EE93129733
:102820008ECF22968C0F9D1FF90191838083F30137
:10283000EFCFF093A604E093A50481CF4816590684
:1028400008F42C017D01D3019ACFCB010E943112F3
:102850007C01009749F0AE01B8010E943714C8010D
:102860000E94CD1287016BCF10E000E068CFFB0122
:10287000DC0102C001900D9241505040D8F70895FC
:10288000FB01DC0101900D920020E1F70895F8941E
:10289000FFCF04041514131202030405313233412F
:1028A00034353642373839432A3023440000A704F0
:1028B000800000000000B3021D024A0200037B02F8
:1028C00059026D020000000052041204E1030000EE
:1028D000000008081D02560655066E616E00696EFE
:1028E00066006F766600414343494F4E20414E5586
:1028F0004C41444100412E47756172646120422E73
:102900004D7565737472612000432E43616D626979
:102910006120442E416E756C612000564F4C54412D
:102920004A4500504F5420566F6C74733A2000444F
:1029300049474954452050415353574F52443A0058
:10294000494E434F52524543542050415353574FE1
:10295000524400536176696E6720446174612E2E83
:102960002E2E0053415645442044415441003B2003
:10297000004E45572050415353574F52443A00534D
:10298000617665642050617373776F72643A0000FA
:020000040003F7
:10E000000D9489F10D94B2F10D94B2F10D94B2F129
:10E010000D94B2F10D94B2F10D94B2F10D94B2F1F0
:10E020000D94B2F10D94B2F10D94B2F10D94B2F1E0
:10E030000D94B2F10D94B2F10D94B2F10D94B2F1D0
:10E040000D94B2F10D94B2F10D94B2F10D94B2F1C0
:10E050000D94B2F10D94B2F10D94B2F10D94B2F1B0
:10E060000D94B2F10D94B2F10D94B2F10D94B2F1A0
:10E070000D94B2F10D94B2F10D94B2F10D94B2F190
:10E080000D94B2F10D94B2F10D94B2F10D94B2F180
:10E090000D94B2F10D94B2F10D94B2F10D94B2F170
:10E0A0000D94B2F10D94B2F10D94B2F10D94B2F160
:10E0B0000D94B2F10D94B2F10D94B2F10D94B2F150
:10E0C0000D94B2F10D94B2F10D94B2F10D94B2F140
:10E0D0000D94B2F10D94B2F10D94B2F10D94B2F130
:10E0E0000D94B2F141546D656761323536300041AF
:10E0F000726475696E6F206578706C6F72657220DE
:10E1000073746B3530305632206279204D4C530099
:10E11000426F6F746C6F616465723E004875683F52
:10E1200000436F6D70696C6564206F6E203D200048
:10E130004350552054797065202020203D20005FF9
:10E140005F4156525F415243485F5F3D2000415658
:10E1500052204C696243205665723D20004743437C
:10E160002056657273696F6E203D20004350552024
:10E1700049442020202020203D20004C6F7720663D
:10E18000757365202020203D20004869676820665F
:10E190007573652020203D200045787420667573D6
:10E1A00065202020203D20004C6F636B2066757336
:10E1B000652020203D20004D617220203720323024
:10E1C000313300312E362E3800342E332E350056A2
:10E1D00023202020414444522020206F7020636F70
:10E1E00064652020202020696E73747275637469E1
:10E1F0006F6E2061646472202020496E74657272B3
:10E20000757074006E6F20766563746F7200726A49
:10E210006D702020006A6D70200057686174207056
:10E220006F72743A00506F7274206E6F7420737541
:10E2300070706F72746564004D7573742062652030
:10E2400061206C6574746572002000577269747483
:10E25000696E672045450052656164696E672045B7
:10E26000450045452065727220636E743D00504F35
:10E27000525400303D5A65726F2061646472003FF1
:10E280003D43505520737461747300403D454550C3
:10E29000524F4D207465737400423D426C696E6B41
:10E2A000204C454400453D44756D70204545505215
:10E2B0004F4D00463D44756D7020464C415348001B
:10E2C000483D48656C70004C3D4C69737420492F83
:10E2D0004F20506F72747300513D51756974005234
:10E2E0003D44756D702052414D00563D73686F7707
:10E2F00020696E7465727275707420566563746FF0
:10E30000727300593D506F727420626C696E6B00BD
:10E310002A0011241FBECFEFD1E2DEBFCDBF01E046
:10E320000CBF12E0A0E0B2E0EEE1FDEF03E00BBFB6
:10E3300002C007900D92A030B107D9F712E0A0E01B
:10E34000B2E001C01D92AE30B107E1F70F9460F367
:10E350000D948DFE01E20EBF0FEF0DBF11241FBE05
:10E360000D9460F30D9400F020E030E040ED57E0B4
:10E3700005C0FA013197F1F72F5F3F4F2817390792
:10E38000C0F308959C01260F311DC901A0E0B0E043
:10E390002F5F3F4FABBFFC018791882361F08093D3
:10E3A000C6008091C00086FFFCCF8091C0008064D1
:10E3B0008093C000EACF08958DE08093C6008091DD
:10E3C000C00086FFFCCF8091C00080648093C000B5
:10E3D0008AE08093C6008091C00086FFFCCF8091C8
:10E3E000C00080648093C00008950F94C2F10F9420
:10E3F000DCF10895FC019081992359F09093C600B7
:10E400008091C00086FFFCCF8091C0008064809323
:10E41000C0003196992379F70895282F982F929567
:10E420009F70892F805D8A3308F0895F8093C600D2
:10E430008091C00086FFFCCF8091C00080648093F3
:10E44000C000822F8F70982F905D9A3308F0995FEB
:10E450009093C6008091C00086FFFCCF8091C000E1
:10E4600080648093C00008959C01FB01853691056E
:10E470001CF46330710594F0C90164E670E00F94F8
:10E480002EFE605D7F4F6093C6008091C00086FFC6
:10E49000FCCF8091C00080648093C0002B30310598
:10E4A00014F43297B4F0C90164E670E00F942EFEC4
:10E4B0006AE070E00F942EFE605D7F4F6093C600AF
:10E4C0008091C00086FFFCCF8091C0008064809363
:10E4D000C000C9016AE070E00F942EFEC0968093E0
:10E4E000C6008091C00086FFFCCF8091C000806490
:10E4F0008093C00008951F93182F8EE692EE60E07F
:10E500000F94C2F11093C6008091C00086FFFCCF2B
:10E510008091C00080648093C0000F94DCF11F9153
:10E5200008952F923F924F925F926F927F928F92B7
:10E530009F92AF92BF92CF92DF92EF92FF920F9392
:10E540001F93DF93CF93CDB7DEB762970FB6F894E2
:10E55000DEBF0FBECDBF382E622ECA01DB015C01CB
:10E560006D01772420E2222E2E010894411C511CBB
:10E570008BC081E0A81680E0B80681E0C80680E084
:10E58000D80628F0C601AA27BB270F940DF2BB2797
:10E59000AD2D9C2D8B2D0F940DF28A2D0F940DF225
:10E5A0002092C6008091C00086FFFCCF8091C00001
:10E5B00080648093C0009DE29093C6008091C0006B
:10E5C00086FFFCCF8091C00080648093C0002092C1
:10E5D000C6008091C00086FFFCCF8091C00080649F
:10E5E0008093C00019828601750188249924A1E0D6
:10E5F0003A1651F03A1620F0B2E03B1661F409C029
:10E600000BBFF701779007C0C7010F9477FE782EF4
:10E6100002C0F7017080872D0F940DF22092C60082
:10E620008091C00086FFFCCF8091C0008064809301
:10E63000C000872D8052F401EF70F0708F3520F408
:10E64000E40DF51D708204C0E40DF51D8EE280839B
:10E650000894E11CF11C011D111D0894811C911CE2
:10E6600090E18916910409F0C2CF80E190E0A0E02A
:10E67000B0E0A80EB91ECA1EDB1E198AC2010F9493
:10E68000FAF10F94DCF16A94662009F072CF629679
:10E690000FB6F894DEBF0FBECDBFCF91DF911F91B3
:10E6A0000F91FF90EF90DF90CF90BF90AF909F9031
:10E6B0008F907F906F905F904F903F902F90089534
:10E6C0002F923F924F925F926F927F928F929F9282
:10E6D000AF92BF92CF92DF92EF92FF920F931F9370
:10E6E000DF93CF93CDB7DEB7CD53D1400FB6F894BB
:10E6F000DEBF0FBECDBF01E20EBF0FEF0DBF94B75F
:10E70000F894A89514BE80916000886180936000A1
:10E7100010926000789493FF05C0E0910002F091A0
:10E7200001021995279A2F9A8091C00082608093E8
:10E73000C00080E18093C40088E18093C1000000A4
:10E74000EE24FF24870144E0A42EB12CCC24DD2448
:10E7500024C0C5010197F1F70894E11CF11C011DCB
:10E76000111D21E2E2162EE4F20620E0020720E06D
:10E77000120718F031E0C32ED12CC801B70127ECE5
:10E780003BE140E050E00F9441FE611571058105C9
:10E79000910519F485B1805885B98091C00087FD35
:10E7A00003C0C114D104A9F2A6014F5F5F4FC25E3E
:10E7B000DE4F59834883CE51D140C25EDE4F8881FF
:10E7C0009981CE51D140019711F00D9410FEC05D9A
:10E7D000DE4F19821882C053D14060E0C15DDE4F28
:10E7E0001882CF52D14088249924C35DDE4F19820C
:10E7F0001882CD52D140C05EDE4F188219821A8233
:10E800001B82C052D140CE5CDE4F188219821A8220
:10E810001B82C253D140EE24FF2487010BBFF701B6
:10E8200007911691C45CDE4F19830883CC53D14005
:10E830000D940BFEC25EDE4F28813981CE51D1404E
:10E840002130310509F52091C600C25EDE4F1982E4
:10E850001882CE51D14022C02F5F3F4F4F4F5F4FA4
:10E86000213082E138078AE7480780E0580780F0C6
:10E87000C45CDE4FE881F981CC53D140EF5FFF4F9C
:10E8800019F0EE27FF27099420E030E040E050E047
:10E890008091C00087FFE0CF2091C600C35DDE4FAE
:10E8A00048815981CD52D1404F5F5F4FC35DDE4FEC
:10E8B00059834883CD52D140213209F063C64A3092
:10E8C000510508F05FC60894811C911C53E0851621
:10E8D000910409F059C600E010E018C081E280936D
:10E8E000C6008091C00086FFFCCF8091C00080648C
:10E8F0008093C0002F5F3F4F2931310579F70F9486
:10E90000DCF10F5F1F4F0530110519F020E030E0FA
:10E91000E5CF10920A0210920B0210920C02109294
:10E920000D02109206021092070210920802109235
:10E930000902109202021092030210920402109235
:10E9400005028FEE90EE60E00F94F5F180E191EE1C
:10E9500060E00F94C2F18091C00087FFFCCF9091DE
:10E96000C600903608F09F759032B8F09093C600BC
:10E970008091C00086FFFCCF8091C00080648093AE
:10E98000C000A0E2A093C6008091C00086FFFCCF2B
:10E990008091C00080648093C000983409F4D7C18E
:10E9A0009934B8F4923409F459C1933458F490333B
:10E9B00019F1903308F4E3C59F33A1F1903409F0C5
:10E9C000DEC5BDC0953409F470C1963409F0D7C5D1
:10E9D00098C1923509F42BC2933538F49C3409F46C
:10E9E000F5C1913509F0CBC518C2963509F445C279
:10E9F000993509F0C4C567C483E792EE62E00F94CD
:10EA0000F5F110920602109207021092080210927D
:10EA1000090210920A0210920B0210920C0210923C
:10EA20000D0213C18FE792EE62E00F94F5F18FEEC5
:10EA300090EE60E00F94F5F181E291EE60E00F94CA
:10EA4000C2F187EB91EE60E00F94F5F180E391EE77
:10EA500060E00F94C2F184EE90EE60E00F94F5F167
:10EA60008FE391EE60E00F94C2F186E090E061E008
:10EA700070E00F9434F20F94DCF18DE591EE60E0DC
:10EA80000F94C2F189EC91EE60E00F94F5F18EE401
:10EA900091EE60E00F94C2F183EC91EE60E00F9490
:10EAA000F5F18CE691EE60E00F94C2F18EE10F94E7
:10EAB0000DF288E90F940DF281E00F940DF20F949E
:10EAC000DCF18BE791EE60E00F94C2F119E0E0E039
:10EAD000F0E010935700E4918E2F0F940DF20F94F5
:10EAE000DCF18AE891EE60E00F94C2F1E3E0F0E03F
:10EAF00010935700E4918E2F0F940DF20F94DCF1D8
:10EB000089E991EE60E00F94C2F1E2E0F0E0109349
:10EB10005700E4918E2F0F940DF20F94DCF188EAE8
:10EB200091EE60E00F94C2F1E1E0F0E01093570045
:10EB30001491812F0F940DF20F94DCF107CF8BE825
:10EB400092EE62E00F94F5F18BE492EE60E00F94A8
:10EB5000F5F10F94DCF100E010E019C0C8016F2D51
:10EB60000F947FFEFF2031F489E492EE60E00F9471
:10EB7000C2F10BC0F092C6008091C00086FFFCCFAE
:10EB80008091C00080648093C0000F5F1F4FC80158
:10EB900081519F41A0E0B0E0ABBFFC01F790BAE229
:10EBA000FB1621F0E2E000301E07C1F60F94DCF105
:10EBB0000F94DCF187E592EE60E00F94F5F10F948D
:10EBC000DCF1CC24DD2400E010E01EC0C8010F946D
:10EBD00077FEF82E882331F489E492EE60E00F94FA
:10EBE000C2F10BC08093C6008091C00086FFFCCFAD
:10EBF0008091C00080648093C000FE1419F00894D6
:10EC0000C11CD11C0F5F1F4FC80181519F41A0E063
:10EC1000B0E0ABBFFC01E790FAE2EF1621F022E092
:10EC20000030120799F60F94DCF10F94DCF182E6C4
:10EC300092EE60E00F94C2F1C60161E070E00F94C3
:10EC400034F20F94DCF10F94DCF110920202109276
:10EC50000302109204021092050278CE89E992EE26
:10EC600062E00F94F5F1279A2F9A16C02F9880E052
:10EC700090E0E0EDF7E03197F1F7019684369105E9
:10EC8000C1F72F9A80E090E0E0EDF7E03197F1F7DF
:10EC9000019684369105C1F78091C00087FFE6CFC9
:10ECA0008091C00087FFFCCF64C485EA92EE62E0E9
:10ECB0000F94F5F140910202509103026091040219
:10ECC0007091050281E020E10F9491F2809102029F
:10ECD00090910302A0910402B091050280509F4FD1
:10ECE000AF4FBF4F8093020290930302A0930402A0
:10ECF000B093050280509041A040B04008F426CE69
:10ED0000A4CF83EB92EE62E00F94F5F140910602FE
:10ED100050910702609108027091090280E020E1A1
:10ED20000F9491F28091060290910702A09108023F
:10ED3000B091090280509F4FAF4FBF4F80930602A2
:10ED400090930702A0930802B0930902FFCD80ECD4
:10ED500092EE62E00F94F5F183E792EE60E00F949B
:10ED6000F5F18FE792EE60E00F94F5F18BE892EE0B
:10ED700060E00F94F5F189E992EE60E00F94F5F10F
:10ED800085EA92EE60E00F94F5F183EB92EE60E09D
:10ED90000F94F5F180EC92EE60E00F94F5F187ECC2
:10EDA00092EE60E00F94F5F188ED92EE60E00F9442
:10EDB000F5F18FED92EE60E00F94F5F18AEE92EEB0
:10EDC00060E00F94F5F183E093EEBDCD87EC92EE19
:10EDD00062E00F94F5F181E40F947BF282E40F94EA
:10EDE0007BF283E40F947BF284E40F947BF285E45E
:10EDF0000F947BF286E40F947BF287E40F947BF20E
:10EE000088E40F947BF28AE40F947BF28BE40F94F6
:10EE10007BF28CE40F947BF299CD88ED92EE62E068
:10EE20000F94F5F1772473948824992409C48FED05
:10EE300092EE62E00F94F5F140910A0250910B02BC
:10EE400060910C0270910D0282E020E10F9491F22A
:10EE500080910A0290910B02A0910C02B0910D02D8
:10EE600080509F4FAF4FBF4F80930A0290930B0289
:10EE7000A0930C02B0930D0269CD8AEE92EE62E08F
:10EE80000F94F5F184EE90EE60E00F94F5F18FECC5
:10EE900091EE60E00F94F5F1662477244301CC5D98
:10EEA000DE4F19821882C452D140D401C301B695F5
:10EEB000A79597958795CA5DDE4F88839983AA8326
:10EEC000BB83C652D140CC5DDE4FA881B981C4520C
:10EED000D1401196CC5DDE4FB983A883C452D14096
:10EEE000CD0162E070E00F9434F2B0E2B093C6005E
:10EEF0008091C00086FFFCCF8091C0008064809329
:10EF0000C000EDE2E093C6008091C00086FFFCCF18
:10EF10008091C00080648093C000F0E2F093C6004E
:10EF20008091C00086FFFCCF8091C00080648093F8
:10EF3000C000CA5DDE4FE880F9800A811B81C6529D
:10EF4000D140BB27A12F902F8F2D0F940DF2CA5DBA
:10EF5000DE4F8881C652D1400F940DF2B0E2FB2EF5
:10EF6000F092C6008091C00086FFFCCF8091C00067
:10EF700080648093C0000DE30093C6008091C000C0
:10EF800086FFFCCF8091C00080648093C00010E2B7
:10EF90001093C6008091C00086FFFCCF8091C00016
:10EFA00080648093C0008BBEF3012791C65DDE4F65
:10EFB0002883CA52D140A22EBB24CC24DD2408943D
:10EFC000611C711C811C911C8BBEF3018791282E42
:10EFD0003324442455240894611C711C811C911C09
:10EFE0008BBEF3013791C55DDE4F3883CB52D140E4
:10EFF0000894611C711C811C911C8BBEF30147910C
:10F00000C45DDE4F4883CC52D140ADEFEA2EAFEF66
:10F01000FA2EAFEF0A2FAFEF1A2F6E0C7F1C801E57
:10F02000911E142D032DF22CEE24EA0CFB1C0C1D5A
:10F030001D1D0F940DF220E22093C6008091C000A8
:10F0400086FFFCCF8091C00080648093C000C65DC5
:10F05000DE4F8881CA52D1400F940DF230E23093D6
:10F06000C6008091C00086FFFCCF8091C000806404
:10F070008093C000C45DDE4F8881CC52D1400F9494
:10F080000DF240E24093C6008091C00086FFFCCFA5
:10F090008091C00080648093C000C55DDE4F888190
:10F0A000CB52D1400F940DF250E25093C6008091A4
:10F0B000C00086FFFCCF8091C00080648093C000B8
:10F0C0008FEFE8168FEFF80680E0080780E018075A
:10F0D00031F484E092EE60E00F94C2F1DFC0D80119
:10F0E000C7018070907CA070B0708050904CA040A0
:10F0F000B040D1F52FEF3FE340E050E0E222F322B1
:10F1000004231523CA5DDE4FA880B980CA80DB8046
:10F11000C652D140AE0CBF1CC01ED11EAA0CBB1CD7
:10F12000CC1CDD1C8EE092EE60E00F94C2F1BB2798
:10F13000A12F902F8F2D0F940DF28E2D0F940DF285
:10F1400030E23093C6008091C00086FFFCCF8091F2
:10F15000C00080648093C0004EE34093C60080915D
:10F16000C00086FFFCCF87C08EE09EEFA0E0B0E03D
:10F17000E822F9220A231B239CE0E91694E9F90608
:10F1800090E0090790E0190709F088C0C45DDE4FE0
:10F19000A881CC52D140EA2EFF2400E010E0102FCD
:10F1A0000F2DFE2CEE24C55DDE4FB881CB52D14031
:10F1B000EB0EF11C011D111DD601C501817090706F
:10F1C000A070B070DC0199278827E80EF91E0A1F8D
:10F1D0001B1F20EF30E040E050E0A222B322C42207
:10F1E000D52241E1AA0CBB1CCC1CDD1C4A95D1F7F1
:10F1F000EA0CFB1C0C1D1D1D81E090E0A0E0B0E0BE
:10F20000282239224A225B2235E1220C331C441C7D
:10F21000551C3A95D1F7E20CF31C041D151D57013E
:10F220006801AA0CBB1CCC1CDD1C85E192EE60E0E1
:10F230000F94C2F1C801AA27BB270F940DF2BB2778
:10F24000A12F902F8F2D0F940DF28E2D0F940DF274
:10F2500090E29093C6008091C00086FFFCCF809121
:10F26000C00080648093C000AEE3A093C60080918C
:10F27000C00086FFFCCF8091C00080648093C000F6
:10F28000C601AA27BB270F940DF2BB27AD2D9C2DDD
:10F290008B2D0F940DF28A2D0F940DF20F94DCF14B
:10F2A000CC5DDE4FE881F981C452D140F99709F471
:10F2B0004DCBF4E0EF2EF12C012D112D6E0C7F1CA7
:10F2C000801E911EF2CD83E093EE62E00F94F5F183
:10F2D0008AE192EE60E00F94C2F18091C00087FF56
:10F2E000FCCF1091C6001F751093C6008091C0001E
:10F2F00086FFFCCF8091C00080648093C0000F9493
:10F30000DCF1812F81548A3108F036C1163409F4BA
:10F3100095C0173490F4133409F44EC0143430F40B
:10F320001134F1F0123409F01DC130C0143409F465
:10F3300059C0153409F016C16BC01A3409F4C4C0A1
:10F340001B3438F4173409F48FC0183409F00AC19B
:10F35000A1C01B3409F4D2C01C3409F003C1E8C0B9
:10F360008FEF81B90DC082B1809582B980E090E0C5
:10F37000E0EDF7E03197F1F70196883C9105C1F790
:10F380008091C00087FFEFCF12B8EFC08FEF84B934
:10F390000DC085B1809585B980E090E0E0EDF7E0A3
:10F3A0003197F1F70196883C9105C1F78091C00033
:10F3B00087FFEFCF15B8D9C08FEF87B90DC088B1DF
:10F3C000809588B980E090E0E0EDF7E03197F1F7C3
:10F3D0000196883C9105C1F78091C00087FFEFCF6F
:10F3E00018B8C3C08FEF8AB90DC08BB180958BB9A7
:10F3F00080E090E0E0EDF7E03197F1F70196883C8E
:10F400009105C1F78091C00087FFEFCF1BB8ADC059
:10F410008FEF8DB90DC08EB180958EB980E090E0F0
:10F42000E0EDF7E03197F1F70196883C9105C1F7DF
:10F430008091C00087FFEFCF1EB897C08FEF80BBD1
:10F440000DC081B3809581BB80E090E0E0EDF7E0F6
:10F450003197F1F70196883C9105C1F78091C00082
:10F4600087FFEFCF11BA81C08FEF83BB0DC084B38C
:10F47000809584BB80E090E0E0EDF7E03197F1F714
:10F480000196883C9105C1F78091C00087FFEFCFBE
:10F4900014BA6BC08FEF809301010FC080910201FD
:10F4A00080958093020180E090E0E0EDF7E03197F5
:10F4B000F1F70196883C9105C1F78091C00087FF64
:10F4C000EDCF1092020151C08FEF809304010FC065
:10F4D0008091050180958093050180E090E0E0ED4A
:10F4E000F7E03197F1F70196883C9105C1F78091DB
:10F4F000C00087FFEDCF1092050137C08FEF8093DA
:10F5000007010FC08091080180958093080180E079
:10F5100090E0E0EDF7E03197F1F70196883C910536
:10F52000C1F78091C00087FFEDCF109208011DC088
:10F530008FEF80930A010FC080910B01809580931B
:10F540000B0180E090E0E0EDF7E03197F1F70196F4
:10F55000883C9105C1F78091C00087FFEDCF1092E4
:10F560000B0103C085E292EEEEC98091C00087FFD7
:10F57000FCCF8091C600EAC988E392EEE4C98CE131
:10F5800091EEE1C988249924933011F1943028F444
:10F59000913089F09230B8F408C0953061F195301F
:10F5A000F0F0963009F048C043C02B3109F042C951
:10F5B00091E06BE13FC96227C15DDE4F2883CF52E6
:10F5C000D14092E037C9B22FA0E0622793E032C960
:10F5D000822F90E0A82BB92B622794E02BC92E3004
:10F5E00009F039C3622795E0C05DDE4F19821882A9
:10F5F000C053D1401FC9E1E0F0E0EC0FFD1FC05D3A
:10F60000DE4F08811981C053D140E00FF11F2083E4
:10F610000F5F1F4FC05DDE4F19830883C053D14079
:10F6200062270A171B0709F005C9D80196E002C92D
:10F63000261709F010C303C0973009F0FBC87724E0
:10F640009981933109F412C19431C8F4963009F4C8
:10F65000D8C0973050F4923009F406C1933009F4C1
:10F660006DC0913009F059C253C0913109F477C08F
:10F67000923108F0BBC0903109F04FC2F5C098310B
:10F6800009F487C0993150F4953109F4EFC09531F0
:10F6900008F4C6C1963109F040C2C2C19A3109F4DA
:10F6A0006CC09A3108F491C09B3109F45BC09D3164
:10F6B00009F033C29D81903359F48F81882311F46E
:10F6C0009EE11CC0813011F091E018C098E916C08D
:10F6D000892F807591F0903539F4E0E0F0E089E011
:10F6E0008093570094910AC0983539F4E3E0F0E034
:10F6F00089E080935700949101C090E01A821B82A8
:10F700008D818C831D829E831F8227E030E009C299
:10F710001A8288E08B8381E48C8386E58D8382E581
:10F720008E8389E48F8383E5888780E589878FE5E9
:10F730008A8782E38B872BE030E0F3C18A818139AD
:10F7400041F0823941F0803911F48FE005C080E04A
:10F7500003C082E001C08AE01A828B8344C0772410
:10F76000739482C08D81882311F48EE12CC0813086
:10F7700011F081E028C088E926C01A82E1E0F0E0BB
:10F7800089E08093570084918B831C8224E030E0D1
:10F79000C8C18B81803589F48C81883039F4E2E0EE
:10F7A000F0E089E08093570084910DC0E0E0F0E044
:10F7B00089E080935700849106C0E3E0F0E089E09F
:10F7C0008093570084911A82DFCF8D81836C99E0FA
:10F7D000E1E0F0E0082E90935700E89507B600FCB2
:10F7E000FDCF1A821B8223E030E09BC180EC8A832C
:10F7F000CE5CDE4F188219821A821B82C253D1401E
:10F800008EC18A8190E0A0E0B0E0582F44273327D2
:10F8100022278B8190E0A0E0B0E0DC0199278827C7
:10F82000282B392B4A2B5B2B8D8190E0A0E0B0E098
:10F83000282B392B4A2B5B2B8C8190E0A0E0B0E089
:10F84000BA2FA92F982F8827282B392B4A2B5B2BCF
:10F85000220F331F441F551FC05EDE4F288339839C
:10F860004A835B83C052D1401A8259C13A81C95C34
:10F87000DE4F3883C753D140CA5CDE4F1882C6536F
:10F88000D1408B81C82EDD24CA5CDE4F488159816E
:10F89000C653D140C42AD52A933109F082C0CE5C28
:10F8A000DE4F88819981AA81BB81C253D1408050AB
:10F8B000904CA340B04030F583E0CE5CDE4FE88052
:10F8C000F9800A811B81C253D140F70100935B008C
:10F8D00080935700E89507B600FCFDCFCE5CDE4F65
:10F8E000088119812A813B81C253D14000501F4FAA
:10F8F0002F4F3F4FCE5CDE4F088319832A833B8313
:10F90000C253D140C05EDE4F488159816A817B81FC
:10F91000C052D140DE011B9631E08C9111962C91A2
:10F9200011971296C75CDE4F2883C953D140C85C3B
:10F93000DE4F1882C853D14090E0C85CDE4FE881AA
:10F94000F981C853D1408E2B9F2B0C01FA01609393
:10F950005B0030935700E89511244E5F5F4F6F4F67
:10F960007F4F0EEFE02E0FEFF02ECE0CDF1CC114F8
:10F97000D10499F685E0C05EDE4F088119812A81A5
:10F980003B81C052D140F80120935B008093570027
:10F99000E89507B600FCFDCF81E180935700E8951C
:10F9A00035C0C05EDE4F88819981AA81BB81C0527B
:10F9B000D140B695A795979587957C018601ABE0D8
:10F9C000AA2EB12CAC0EBD1E0BC0D5016D915D01F0
:10F9D000C7010F947FFE0894E11CF11C01501040F8
:10F9E0000115110591F7A60160E070E0440F551F65
:10F9F000661F771FC05EDE4FE880F9800A811B8199
:10FA0000C052D1404E0D5F1D601F711F1A82C05E33
:10FA1000DE4F488359836A837B83C052D1407FC0C5
:10FA2000FA80C55CDE4FF882CB53D140C65CDE4F16
:10FA30001882CA53D1408B81C82EDD24C65CDE4FAC
:10FA400008811981CA53D140C02AD12A1A828981DA
:10FA5000BE016D5F7F4F843121F59601C05EDE4FA0
:10FA6000E880F9800A811B81C052D1400BBFF701A9
:10FA700087919691DB018C9311969C936E5F7F4FDB
:10FA8000D801C7010296A11DB11DC05EDE4F88835B
:10FA90009983AA83BB83C052D14022503040F1F6F3
:10FAA00036C0C05EDE4F288139814A815B81C052F9
:10FAB000D1400894C108D108760100E010E0089414
:10FAC000C11CD11C0894E11CF11C011D111DE20E8A
:10FAD000F31E041F151F21BDBB27A52F942F832FB5
:10FAE00082BD2F5F3F4F4F4F5F4FF89A80B5DB01CC
:10FAF0008D93BD012E153F054007510761F7C05E8C
:10FB0000DE4F288339834A835B83C052D1409601FC
:10FB10002D5F3F4FFB01108204C080EC8A8322E0FE
:10FB200030E08BE18093C6008091C00086FFFCCF5F
:10FB30008091C00080648093C000C15DDE4FF88179
:10FB4000CF52D140F093C6008091C00086FFFCCF19
:10FB50008091C00080648093C000432F3093C60022
:10FB60008091C00086FFFCCF8091C00080648093AC
:10FB7000C000922F2093C6008091C00086FFFCCF6A
:10FB80008091C00080648093C0008EE08093C600A6
:10FB90008091C00086FFFCCF8091C000806480937C
:10FBA000C00065E1C15DDE4FE880CF52D1406E25D7
:10FBB00069276427FE01319610C090819093C6009A
:10FBC0008091C00086FFFCCF31968091C000806498
:10FBD0008093C0006927215030402115310569F715
:10FBE0006093C6008091C00086FFFCCF8091C0006A
:10FBF00080648093C00085B1805885B9772081F4F6
:10FC0000C15DDE4F0881CF52D1400F5FC15DDE4F35
:10FC10000883CF52D14090E0A0E0B0E00D941AF4F8
:10FC200027982F9880E090E020ED37E0F901319798
:10FC3000F1F7019684369105C9F700008091C00064
:10FC40008D7F8093C00081E180935700E895EE2777
:10FC5000FF270994FFCF90E00D941AF497FB092E2B
:10FC600007260AD077FD04D02ED006D000201AF443
:10FC7000709561957F4F0895F6F7909581959F4F08
:10FC80000895A1E21A2EAA1BBB1BFD010DC0AA1FDD
:10FC9000BB1FEE1FFF1FA217B307E407F50720F0F5
:10FCA000A21BB30BE40BF50B661F771F881F991F70
:10FCB0001A9469F760957095809590959B01AC01B9
:10FCC000BD01CF010895AA1BBB1B51E107C0AA1FAC
:10FCD000BB1FA617B70710F0A61BB70B881F991FED
:10FCE0005A95A9F780959095BC01CD010895F99991
:10FCF000FECF92BD81BDF89A992780B50895262F31
:10FD0000F999FECF1FBA92BD81BD20BD0FB6F89400
:0EFD1000FA9AF99A0FBE01960895F894FFCF63
:00000001FF
