:020000040000FA
:100000000C9462000C948A000C948A000C948A0070
:100010000C948A000C948A000C948A000C948A0038
:100020000C948A000C948A000C948A000C948A0028
:100030000C948A000C948A000C948A000C948A0018
:100040000C9435030C948A000C9403030C94DD0289
:100050000C948A000C948A000C948A000C948A00F8
:100060000C948A000C948A000000000023002600F3
:10007000290000000000240027002A0000000000E2
:10008000250028002B0004040404040404040202D4
:100090000202020203030303030301020408102007
:1000A0004080010204081020010204081020000012
:1000B0000008000201000003040700000000000027
:1000C0000000650511241FBECFEFD8E0DEBFCDBF15
:1000D00011E0A0E0B1E0E8E7FBE002C005900D927E
:1000E000A636B107D9F722E0A6E6B1E001C01D921D
:1000F000AC30B207E1F710E0C2E6D0E004C02197CF
:10010000FE010E94B405C136D107C9F70E947F03E2
:100110000C94BA050C940000AF92BF92CF92DF927C
:10012000EF92FF920F931F93CF93DF936C017B01AC
:100130008B01040F151FEB015E01AE18BF08C0173D
:10014000D10759F06991D601ED91FC910190F081B0
:10015000E02DC6010995892B79F7C501DF91CF9173
:100160001F910F91FF90EF90DF90CF90BF90AF90D5
:100170000895FC01538D448D252F30E0842F90E0AD
:10018000821B930B541710F0CF9608950197089592
:10019000FC01918D828D981761F0A28DAE0FBF2F5B
:1001A000B11D5D968C91928D9F5F9F73928F90E0B1
:1001B00008958FEF9FEF0895FC01918D828D981720
:1001C00031F0828DE80FF11D858D90E008958FEF5D
:1001D0009FEF0895FC01918D228D892F90E0805C26
:1001E0009F4F821B91098F73992708958FE691E0A5
:1001F0000E94EA0021E0892B09F420E0822F089573
:1002000080E090E0892B29F00E94F60081110C9487
:1002100000000895FC01A48DA80FB92FB11DA35AA9
:10022000BF4F2C91848D90E001968F739927848F16
:10023000A689B7892C93A089B1898C918370806439
:100240008C93938D848D981306C00288F389E02DDA
:1002500080818F7D80830895EF92FF920F931F938B
:10026000CF93DF93EC0181E0888F9B8D8C8D981369
:100270001AC0E889F989808185FF15C09FB7F89475
:10028000EE89FF896083E889F989808183708064C1
:1002900080839FBF81E090E0DF91CF911F910F910C
:1002A000FF90EF900895F62E0B8D10E00F5F1F4F1B
:1002B0000F731127E02E8C8D8E110CC00FB607FC2A
:1002C000FACFE889F989808185FFF5CFCE010E94B8
:1002D0000A01F1CFEB8DEC0FFD2FF11DE35AFF4F1B
:1002E000F0829FB7F8940B8FEA89FB898081806246
:1002F000CFCFCF93DF93EC01888D8823B9F0AA8903
:10030000BB89E889F9898C9185FD03C0808186FDD0
:100310000DC00FB607FCF7CF8C9185FFF2CF80811F
:1003200085FFEDCFCE010E940A01E9CFDF91CF9189
:100330000895833081F028F4813099F08230A9F05B
:1003400008958730A9F08830C9F08430B1F48091E5
:1003500080008F7D03C0809180008F778093800024
:10036000089584B58F7784BD089584B58F7DFBCFC4
:100370008091B0008F778093B00008958091B00095
:100380008F7DF9CFEF92FF920F931F93CF93DF935F
:100390008C01D0E0C0E0FE01EC54FF4F8491FE01DF
:1003A000E056FF4FE490FE01E457FF4FF490FF202A
:1003B000D9F081110E949901EF2DF0E0EE0FFF1F9F
:1003C000E458FF4FA591B4918FB7F89498010C2E83
:1003D00002C0359527950A94E2F7EC9120FD0FC0F5
:1003E000E094EE22EC928FBF2196C430D10599F6AD
:1003F000DF91CF911F910F91FF90EF900895EE2A1A
:10040000F1CFCF93DF93282F30E0F901E255FF4F72
:100410008491F901E656FF4FD491F901EA57FF4F55
:10042000C491CC23A1F081110E949901EC2FF0E03E
:10043000EE0FFF1FE859FF4FA591B491EC91ED230A
:1004400081E090E009F480E0DF91CF91089580E0B1
:1004500090E0FACF3FB7F89480916B0190916C01D6
:10046000A0916D01B0916E0126B5A89B05C02F3FEC
:1004700019F00196A11DB11D3FBFBA2FA92F982FCA
:100480008827BC01CD01620F711D811D911D42E0C5
:10049000660F771F881F991F4A95D1F708958F928D
:1004A0009F92AF92BF92CF92DF92EF92FF926B0139
:1004B0007C010E942A024B015C01C114D104E104B9
:1004C000F104B9F00E942A02681979098A099B0986
:1004D000683E73408105910580F321E0C21AD1087E
:1004E000E108F10888EE880E83E0981EA11CB11C7B
:1004F000E4CFFF90EF90DF90CF90BF90AF909F90B0
:100500008F9008958F929F92AF92BF920F931F93F7
:10051000CF93DF93CDB7DEB7A1970FB6F894DEBFC8
:100520000FBECDBF19A2423008F44AE08E010F5D24
:100530001F4F842E912CB12CA12CA50194010E9457
:100540009205E62FB901CA01EA3044F5E05DD80111
:10055000EE938D01232B242B252B79F790E080E05F
:10056000109769F0FD0101900020E9F73197AF0184
:100570004A1B5B0BBD018FE691E00E948C00A196A7
:100580000FB6F894DEBF0FBECDBFDF91CF911F91A4
:100590000F91BF90AF909F908F900895E95CD7CF57
:1005A000FC0101900020E9F73197AF01481B590B7E
:1005B000BC018FE691E00C948C001F920F920FB655
:1005C0000F9211242F933F934F935F936F937F93D9
:1005D0008F939F93AF93BF93EF93FF938FE691E039
:1005E0000E940A01FF91EF91BF91AF919F918F916E
:1005F0007F916F915F914F913F912F910F900FBE1F
:100600000F901F9018951F920F920FB60F92112402
:100610002F938F939F93EF93FF93E0917F01F0913E
:1006200080018081E0918501F091860182FD1BC0EF
:100630009081809188018F5F8F732091890182174B
:1006400041F0E0918801F0E0E159FE4F958F8093F1
:100650008801FF91EF919F918F912F910F900FBE85
:100660000F901F9018958081F4CF1F920F920FB6B4
:100670000F9211242F933F938F939F93AF93BF9328
:100680008091670190916801A0916901B0916A0120
:100690003091660123E0230F2D3758F50196A11DF7
:1006A000B11D209366018093670190936801A09328
:1006B0006901B0936A0180916B0190916C01A091E6
:1006C0006D01B0916E010196A11DB11D80936B016A
:1006D00090936C01A0936D01B0936E01BF91AF91A7
:1006E0009F918F913F912F910F900FBE0F901F9070
:1006F000189526E8230F0296A11DB11DD2CF78943C
:1007000084B5826084BD84B5816084BD85B5826016
:1007100085BD85B5816085BD80916E0081608093C7
:100720006E00109281008091810082608093810030
:100730008091810081608093810080918000816040
:10074000809380008091B10084608093B10080919B
:10075000B00081608093B00080917A0084608093C3
:100760007A0080917A00826080937A0080917A008A
:10077000816080937A0080917A00806880937A000B
:100780001092C10022E030E0F901E656FF4F44919B
:10079000F901EA57FF4F84918823C1F090E0880F58
:1007A000991FFC01EE58FF4FC591D491FC01E4580C
:1007B000FF4FA591B4919FB7F8945881842F8095ED
:1007C00085238883EC91E42BEC939FBF2F5F3F4FF1
:1007D00026303105C9F6F901E656FF4F4491F9017B
:1007E000EA57FF4F8491882399F090E0880F991F72
:1007F000FC01EE58FF4FA591B491FC01E458FF4F66
:10080000859194918FB7F894EC91E42BEC938FBF82
:100810002F5F3F4F2A303105F1F6E0917F01F091D3
:10082000800182E08083E0917B01F0917C01108265
:10083000E0917D01F0917E018FEC80831092870121
:10084000E0918301F091840186E08083E091810151
:10085000F0918201808180618083E0918101F0913B
:100860008201808188608083E0918101F091820122
:10087000808180688083E0918101F0918201808194
:100880008F7D8083C0E0D0E0BB24B3940FEF1FEFD7
:1008900048E0A42E82E00E940102892B99F463E2D1
:1008A00070E080E090E00E944F02B09206014AE0C2
:1008B00061E070E080E090E00E9482021093050108
:1008C0000093040183E00E940102892BA9F463E2F2
:1008D00070E080E090E00E944F02109206014AE032
:1008E00060E070E0CB010E9482028091030190E001
:1008F000909305018093040184E00E940102892BFA
:10090000C9F463E270E080E090E00E944F0284E06E
:100910000E940102892BD9F363E270E080E090E04D
:100920000E944F02809102018F5F843008F09AC0CC
:100930008093020185E00E940102892BF1F563E2B8
:1009400070E080E090E00E944F0285E00E9401028A
:10095000892BD9F363E270E080E090E00E944F02BF
:10096000C0900001D09001018FEFC81AD80AD09230
:100970000101C09200010D2C000CEE08FF084AE0B6
:10098000C701B601F7FE0DC06DE28FE691E00E944F
:100990002C0166277727CB016C197D098E099F09E9
:1009A0004AE00E9482028091000190910101059726
:1009B00024F01092010110920001809104019091A5
:1009C000050120910601213009F04FC00196909356
:1009D000050180930401209103012817190609F0ED
:1009E00024F410920501109204016091020170E05C
:1009F00090E080E04AE00E94820280910201823011
:100A000009F443C0833009F44FC0813081F4E09190
:100A10000401F0910501EE0FFF1FE55CFE4F8081A0
:100A200091810E94C20183E491E00E94D002E09192
:100A30000001F0910101EE0FFF1FE75EFE4F6081A4
:100A40007181072E000C880B990B0E944F02209792
:100A500009F420CF0E94F600882309F41BCF0E94DE
:100A6000000018CFB092020165CF01979093050165
:100A70008093040197FFB9CF809103018150990BB6
:100A80009093050180930401B0CFE0910401F091AF
:100A90000501EE0FFF1FED5CFE4F808191810E94EA
:100AA000C2018DE491E0C1CFE0910401F091050114
:100AB000EE0FFF1FED5DFE4F808191810E94C2010C
:100AC000A092030189E591E0B0CFEFE6F1E0138257
:100AD000128288EE93E0A0E0B0E084839583A68341
:100AE000B7838BE091E09183808385EC90E09587DC
:100AF000848784EC90E09787868780EC90E0918BE8
:100B0000808B81EC90E0938B828B82EC90E0958BD4
:100B1000848B86EC90E0978B868B118E128E138ED1
:100B2000148E0895A1E21A2EAA1BBB1BFD010DC055
:100B3000AA1FBB1FEE1FFF1FA217B307E407F5078D
:100B400020F0A21BB30BE40BF50B661F771F881F69
:100B5000991F1A9469F760957095809590959B01FF
:100B6000AC01BD01CF010895EE0FFF1F0590F49178
:100B7000E02D0994F894FFCF02000204FFFF01006A
:100B80000000002C018C00B9007901EA00C800DCEB
:100B900000190032006400FA00F40108000C00049F
:100BA00000060002000300010009000C000600031B
:100BB000000900080004000200010020556E2070AA
:100BC00061736F200020446F73207061736F732016
:0E0BD00000204D6564696F207061736F200016
:107E0000112484B714BE81FFF0D085E080938100F7
:107E100082E08093C00088E18093C10086E0809377
:107E2000C20080E18093C4008EE0C9D0259A86E02C
:107E300020E33CEF91E0309385002093840096BBD3
:107E4000B09BFECF1D9AA8958150A9F7CC24DD24C4
:107E500088248394B5E0AB2EA1E19A2EF3E0BF2EE7
:107E6000A2D0813461F49FD0082FAFD0023811F036
:107E7000013811F484E001C083E08DD089C08234E0
:107E800011F484E103C0853419F485E0A6D080C0E4
:107E9000853579F488D0E82EFF2485D0082F10E0AE
:107EA000102F00270E291F29000F111F8ED06801E7
:107EB0006FC0863521F484E090D080E0DECF843638
:107EC00009F040C070D06FD0082F6DD080E0C81688
:107ED00080E7D80618F4F601B7BEE895C0E0D1E017
:107EE00062D089930C17E1F7F0E0CF16F0E7DF06D8
:107EF00018F0F601B7BEE89568D007B600FCFDCFD4
:107F0000A601A0E0B1E02C9130E011968C91119780
:107F100090E0982F8827822B932B1296FA010C0160
:107F200087BEE89511244E5F5F4FF1E0A038BF0790
:107F300051F7F601A7BEE89507B600FCFDCF97BE46
:107F4000E89526C08437B1F42ED02DD0F82E2BD052
:107F50003CD0F601EF2C8F010F5F1F4F84911BD097
:107F6000EA94F801C1F70894C11CD11CFA94CF0C13
:107F7000D11C0EC0853739F428D08EE10CD085E9AC
:107F80000AD08FE07ACF813511F488E018D01DD067
:107F900080E101D065CF982F8091C00085FFFCCF94
:107FA0009093C60008958091C00087FFFCCF809118
:107FB000C00084FD01C0A8958091C6000895E0E648
:107FC000F0E098E1908380830895EDDF803219F02E
:107FD00088E0F5DFFFCF84E1DECF1F93182FE3DFCA
:107FE0001150E9F7F2DF1F91089580E0E8DFEE27F6
:047FF000FF270994CA
:027FFE00040479
:00000001FF
