:100000000C9439010C944D010C944D010C944D014C
:100010000C944D010C944D010C944D010C944D0128
:100020000C944D010C944D010C944D010C944D0118
:100030000C944D010C944D010C944D010C944D0108
:100040000C944D010C944D010C944D010C944D01F8
:100050000C944D010C944D010C944D010C94F30142
:100060000C944D010C944D010C944D010C944D01D8
:100070000C944D010C944D010C944D010C944D01C8
:100080000C944D010C944D010C944D010C944D01B8
:100090000C944D010C944D010C944D010C944D01A8
:1000A0000C944D010C944D010C944D010C944D0198
:1000B0000C944D010C944D010C944D010C944D0188
:1000C0000C944D010C944D010C944D010C944D0178
:1000D0000C944D010C944D010C944D010C944D0168
:1000E0000C944D010C943D030C946A030C945B0337
:1000F0000C940A030C94DB010C947E030C94E30132
:100100000C9488030C94AE010C94B6010C94C301BA
:100110000C9435030C94C7010C94BD010C94ED01B3
:100120000C94B2010C9451030C94CD010C94E90190
:100130000C94DF010C9497010C9423030C940F038F
:100140000C94BA010C949C030C9447030C949C01EE
:100150000C942D030C9474030C9419030C94D1018A
:100160000C9492030C94D5010C94050300000A0B27
:1001700002090C0D0E080703040100000000000036
:10018000000000000000000000000000000000006F
:10019000000000000000000012111000000000002C
:1001A000000000000000000000000000000000004F
:1001B000000000002200250028002B002E00310046
:1001C000340002010000050108010B0100002100BC
:1001D000240027002A002D00300033000101000018
:1001E000040107010A0105050505070508080808B7
:1001F000020202020A0A08080404040401010101BF
:1002000001010101030303030303030304070707B9
:100210000C0C0C0C0C0C0C0C02020202060606065E
:10022000060606060B0B0B0B0B0B0B0B010210202B
:10023000200808102040102040800201020108041C
:1002400002010102040810204080804020100804B0
:100250000201800402018040201008040201080409
:10026000020101020408102040800102040810204D
:10027000408011241FBECFEFD1E2DEBFCDBF00E032
:100280000CBF22E0A0E0B2E001C01D92A930B2078D
:10029000E1F70E943D020C94A9030C940000E1E3F5
:1002A000F2E02491EBEEF1E08491882399F090E064
:1002B000880F991FFC01E453FE4FA591B491FC01F6
:1002C000EE54FE4F859194918FB7F894EC91E22B08
:1002D000EC938FBF0895382FE1E7F1E08491E1E3DB
:1002E000F2E02491EBEEF1E09491992309F435C00A
:1002F000882311F181508231F8F4E82FF0E088274B
:10030000EB57FE4F8F4F0C94A103B601BA01970132
:10031000AE01B2019C01BD01C301C701CD01D101F4
:10032000D501DB01DF019C01E301E901ED018091D1
:1003300080008F7780938000E92FF0E0EE0FFF1FA1
:10034000EE54FE4FA591B4918FB7F894EC91311112
:1003500048C020952E232C938FBF08958091800054
:100360008F7DE8CF80918000877FE4CF84B58F7741
:1003700084BDE2CF84B58F7DFBCF8091B0008F77B5
:100380008093B000D9CF8091B0008F7DF9CF80915C
:1003900090008F7780939000CFCF809190008F7DD9
:1003A000F9CF80919000877FF5CF8091A0008F7763
:1003B0008093A000C1CF8091A0008F7DF9CF809164
:1003C000A000877FF5CF809120018F778093200157
:1003D000B3CF809120018F7DF9CF80912001877F5D
:1003E000F5CF2E2BB8CF1F920F920FB60F9211247C
:1003F0002F933F938F939F93AF93BF938091050269
:1004000090910602A0910702B09108023091040277
:1004100023E0230F2D3758F50196A11DB11D209320
:1004200004028093050290930602A0930702B09302
:1004300008028091000290910102A0910202B09105
:1004400003020196A11DB11D809300029093010249
:10045000A0930202B0930302BF91AF919F918F913D
:100460003F912F910F900FBE0F901F90189526E887
:10047000230F0296A11DB11DD2CF789484B582605E
:1004800084BD84B5816084BD85B5826085BD85B538
:10049000816085BD80916E00816080936E001092B6
:1004A0008100809181008260809381008091810031
:1004B00081608093810080918000816080938000C2
:1004C0008091B10084608093B1008091B000816020
:1004D0008093B00080919100826080939100809120
:1004E0009100816080939100809190008160809361
:1004F00090008091A10082608093A1008091A10072
:1005000081608093A1008091A00081608093A00011
:10051000809121018260809321018091210181607D
:10052000809321018091200181608093200180913E
:100530007A00846080937A0080917A008260809350
:100540007A0080917A00816080937A0080917A00AD
:10055000806880937A001092C1000E944F0191E45C
:10056000D92E21E7E22E21E0F22E00E010E080916A
:100570007B00877F80937B00D0927C0080917A0003
:10058000806480937A0080917A0086FDFCCF809110
:100590007800C0917900DC2FC82FD7FD2396D59520
:1005A000C795D595C7950E944F01209749F480E0E3
:1005B0000E946B0101151105D1F20E940000D7CFF6
:1005C000CF3FD10511F481E0F3CFF7018491EFEF34
:1005D000E80FE23108F0B0C0F0E08827ED50FD4FA1
:1005E0008F4F0C94A10305030A030F031903230380
:1005F0009C032D0335033D03470351035B036A034B
:1006000074039C037E038803920384B5806884BDD1
:10061000C7BDD0CF84B5806284BDC8BDCBCF80912B
:100620008000806880938000D0938900C093880008
:10063000C1CF80918000806280938000D0938B0036
:10064000C0938A00B7CF809180008860809380003B
:10065000D0938D00C0938C00ADCF8091B0008068A6
:100660008093B000C093B300A5CF8091B0008062AA
:100670008093B000C093B4009DCF809190008068BB
:1006800080939000D0939900C093980093CF80916D
:100690009000806280939000D0939B00C0939A005A
:1006A00089CF80919000886080939000D0939D00C6
:1006B000C0939C007FCF8091A00080688093A000B1
:1006C0008091A0008F7B8093A000D093A900C0935D
:1006D000A80070CF8091A00080628093A000D0938A
:1006E000AB00C093AA0066CF8091A0008860809381
:1006F000A000D093AD00C093AC005CCF80912001EE
:10070000806880932001D0932901C093280152CFA3
:1007100080912001806280932001D0932B01C093AF
:100720002A0148CF80912001886080932001D093D6
:100730002D01C0932C013ECFC038D1050CF043CF22
:1007400036CFEE0FFF1F881F8BBF0790F691E02D6D
:060750001994F894FFCF9C
:00000001FF
