:100000000C942B010C945C010C945C010C945C012D
:100010000C945C010C945C010C945C010C945C01EC
:100020000C945C010C945C010C945C010C945C01DC
:100030000C945C010C945C010C945C010C945C01CC
:100040000C945C010C948F060C945C010C945C0184
:100050000C945C010C945C010C945C010C94BB0549
:100060000C945C010C9485050C945B050C945C016C
:100070000C945C010C945C010C945C010C945C018C
:100080000C9461060C945C010C945C010C945C0172
:100090000C945C010C945C010C945C010C945C016C
:1000A0000C945C010C945C010C9433060C945C0180
:1000B0000C945C010C945C010C945C010C9405069E
:1000C0000C945C010C945C010C945C010C945C013C
:1000D0000C945C010C945C010C945C010C945C012C
:1000E0000C945C010C942F020C947F020C94AA03D4
:1000F0000C946B020C94C9030C94B2030C94BF03D0
:100100000C94DB030C94E5030C94BD060C945C0288
:100110000C94B6030C9493030C94B9030C94CD0384
:100120000C94DF030C94AE030C948D020C94D70353
:100130000C9498030C94C3030C94C5020C94A80966
:100140000C94D1030C94E9030C94120300000A0BE5
:1001500002090C0D0E080703040100000000000056
:10016000000000000000000000000000000000008F
:10017000000000000000000012111000000000004C
:10018000000000000000000000000000000000006F
:10019000000000002200250028002B002E00310066
:1001A000340002010000050108010B0100002100DC
:1001B000240027002A002D00300033000101000038
:1001C000040107010A0105050505070508080808D7
:1001D000020202020A0A08080404040401010101DF
:1001E00001010101030303030303030304070707DA
:1001F0000C0C0C0C0C0C0C0C02020202060606067F
:10020000060606060B0B0B0B0B0B0B0B010210204B
:10021000200808102040102040800201020108043C
:1002200002010102040810204080804020100804D0
:100230000201800402018040201008040201080429
:10024000020101020408102040800102040810206D
:100250004080BD06A80911241FBECFEFD1E2DEBF4A
:10026000CDBF00E00CBF13E0A0E0B2E0E8E1F9E1AF
:1002700000E00BBF02C007900D92AA36B107D9F774
:1002800024E0AAE6B3E001C01D92A23BB207E1F769
:1002900011E0CAE2D1E000E006C021970109802FF9
:1002A000FE010E945C0AC932D10780E00807A9F765
:1002B0000E944C070C947A0C0C9400008F929F9231
:1002C000AF92BF92FF920F931F93CF93DF93F09063
:1002D000A5042FE22F1508F44CC02091A70408E5CF
:1002E00012E0021B110927FD1395000F111F000FCB
:1002F000111F2091A604C8E8D0E0C21BD10927FD38
:10030000D395CC0FDD1FCC0FDD1F4E010D2E000C41
:10031000AA08BB089801012E000C440B550B2819A4
:1003200039094A095B09DC010E94170A24EB30E015
:1003300040E050E00E94ED09820E931EA41EB51EFF
:100340008C169D062CF0E801801691060CF4E40151
:100350002297CC0FDD1F2FB7F8948F2D90E0FC0172
:10036000EE0FFF1FE80FF91FEC5EFB4FD283C18336
:100370002FBFDF91CF911F910F91FF90BF90AF9052
:100380009F908F9008958F929F92AF92BF92CF923D
:10039000DF92EF92FF928091A70458E5C52E52E0BC
:1003A000D52EC81AD10887FDD394CC0CDD1CCC0CFB
:1003B000DD1C0D2C000CEE08FF088091A60478E8E7
:1003C000872E912C881A910887FD9394880C991C8C
:1003D000880C991C092C000CAA08BB088091A50464
:1003E0008F3FD1F190E0FC01EE0FFF1FE80FF91FE6
:1003F000EC5EFB4F8181928133E0880F991F3A9523
:10040000E1F7B0E0A0E044E0B595A7959795879512
:100410004A95D1F702969C012F5F3F4F032E000CA7
:10042000440B550B281939094A095B09A4EBB0E0C4
:100430000E940C0AA7019601281939094A095B098B
:100440000E94ED09C901FF90EF90DF90CF90BF901F
:10045000AF909F908F90089590E080E0DCCFAF92B6
:10046000BF92CF92DF92EF92FF920F931F93CF93A1
:10047000DF936C017B018B01040F151FEB015E0103
:10048000AE18BF08C017D10759F06991D601ED9198
:10049000FC910190F081E02DC6011995892B79F727
:1004A000C501DF91CF911F910F91FF90EF90DF90E9
:1004B000CF90BF90AF900895FC01538D448D252FB0
:1004C00030E0842F90E0821B930B541710F0CF96EE
:1004D000089501970895FC01918D828D981761F020
:1004E000A28DAE0FBF2FB11D5D968C91928D9F5F37
:1004F0009F73928F90E008958FEF9FEF0895FC0116
:10050000918D828D981731F0828DE80FF11D858DC8
:1005100090E008958FEF9FEF0895FC01918D228D5B
:10052000892F90E0805C9F4F821B91098F739927E0
:10053000089587E793E00E948D0221E0892B09F45A
:1005400020E0822F0895FC01A48DA80FB92FB11DC2
:10055000A35ABF4F2C91848D90E001968F739927F9
:10056000848FA689B7892C93A089B1898C918370D7
:1005700080648C93938D848D981306C00288F389D0
:10058000E02D80818F7D80830895EF92FF920F93FD
:100590001F93CF93DF93EC0181E0888F9B8D8C8D2F
:1005A00098131AC0E889F989808185FF15C09FB723
:1005B000F894EE89FF896083E889F98980818370E6
:1005C000806480839FBF81E090E0DF91CF911F9195
:1005D0000F91FF90EF900895F62E0B8D10E00F5FB6
:1005E0001F4F0F731127E02E8C8D8E110CC00FB68C
:1005F00007FCFACFE889F989808185FFF5CFCE0124
:100600000E94A302F1CFEB8DEC0FFD2FF11DE35AF9
:10061000FF4FF0829FB7F8940B8FEA89FB898081A6
:100620008062CFCFCF93DF93EC01888D8823B9F020
:10063000AA89BB89E889F9898C9185FD03C08081ED
:1006400086FD0DC00FB607FCF7CF8C9185FFF2CF6A
:10065000808185FFEDCFCE010E94A302E9CFDF911B
:10066000CF91089580E090E0892B29F00E949902B3
:1006700081110E94000080E090E0892B49F080E029
:1006800090E0892B29F00E94000081110E94000057
:1006900080E090E0892B49F080E090E0892B29F000
:1006A0000E94000081110E94000080E090E0892BF0
:1006B00049F080E090E0892B29F00E940000811130
:1006C0000C9400000895282F30E0F901E45BFE4F00
:1006D0009491F901E45FFD4F44912A533E4FF90193
:1006E0002491222309F435C0992311F191509231BC
:1006F000F8F4E92FF0E08827EF57FC4F8F4F0C9468
:100700005C0AB203B6039303AA03AE039803B903CA
:10071000BF03C303C903CD03D103D703DB0398038E
:10072000DF03E503E903809180008F7780938000E9
:10073000E22FF0E0EE0FFF1FEE56FE4FA591B491B1
:100740008FB7F894EC91611148C040954E234C93BB
:100750008FBF0895809180008F7DE8CF80918000C9
:10076000877FE4CF84B58F7784BDE2CF84B58F7D5A
:10077000FBCF8091B0008F778093B000D9CF80916C
:10078000B0008F7DF9CF809190008F77809390009B
:10079000CFCF809190008F7DF9CF80919000877F9F
:1007A000F5CF8091A0008F778093A000C1CF80917A
:1007B000A0008F7DF9CF8091A000877FF5CF809139
:1007C00020018F7780932001B3CF809120018F7D0E
:1007D000F9CF80912001877FF5CF4E2BB8CF3FB75F
:1007E000F8948091730390917403A0917503B09174
:1007F000760326B5A89B05C02F3F19F00196A11DD1
:10080000B11D3FBFBA2FA92F982F8827BC01CD015A
:10081000620F711D811D911D42E0660F771F881FB9
:10082000991F4A95D1F708958F929F92AF92BF92E8
:10083000CF92DF92EF92FF920E94EF034B015C0197
:1008400089E1C82ED12CE12CF12C0E94EF0368190C
:1008500079098A099B09683E734081059105A8F3CF
:1008600021E0C21AD108E108F10888EE880E83E081
:10087000981EA11CB11CC114D104E104F10429F794
:10088000FF90EF90DF90CF90BF90AF909F908F90B0
:100890000895AF92BF92CF92DF92EF92FF920F93A3
:1008A0001F93CF93DF936B017A01EC01C659DC4FA4
:1008B00028813CE0389F8001399F100D1124A090C1
:1008C000A404B12C27FF1FC0FB0111821082888174
:1008D0008F5F888388819801280F311D87FD3A95A5
:1008E000F6012A153B051CF488818C30C4F1808107
:1008F0009181049680349C4908F473C0F60180818C
:100900009181049670C088819801280F311D87FD60
:100910003A952A153B05DCF68881A801480F511D40
:1009200087FD5A95FA01EE0FFF1FE40FF51FEC5EED
:10093000FB4F808186FFCBCF8881F801E80FF11D46
:1009400087FDFA95CF01EE0FFF1FE80FF91FEC5E50
:10095000FB4F808160E08F730E946303B8CF80817A
:1009600091812881A801420F511D27FD5A959A01B6
:10097000FA01EE0FFF1FE20FF31FEC5EFB4F218128
:100980003281820F931FF7019183808388819801C0
:10099000280F311D87FD3A95F901EE0FFF1FE20F79
:1009A000F31FEC5EFB4F808186FF22C08881080F19
:1009B000111D87FD1A95F801EE0FFF1FE00FF11FC3
:1009C000EC5EFB4F808161E08F73DF91CF911F91CF
:1009D0000F91FF90EF90DF90CF90BF90AF900C946D
:1009E000630380E49CE9F701918380838FEF888320
:1009F000DF91CF911F910F91FF90EF90DF90CF90FB
:100A0000BF90AF900895CF93DF93FC010190002039
:100A1000E9F73197AF01481B590BBC0187E793E019
:100A20000E942F02EC0142E050E069E172E087E7AA
:100A300093E00E942F028C0F9D1FDF91CF910895AC
:100A4000CF93DF93C2E3D0E08CE192E00E940305F4
:100A50002197D1F7DF91CF910895CF93DF93EC01E8
:100A60008091A8049091A904009759F02091AA04BC
:100A70003091AB042C173D0720F081E0DF91CF913E
:100A80000895BE016F5F7F4F0E94890B009789F028
:100A90009093A9048093A804D093AB04C093AA04B4
:100AA0002091AC043091AD04232B39F7FC01108266
:100AB000E4CF80E0E3CF1F920F920FB60F92112484
:100AC0000BB60F922F933F934F935F936F937F9348
:100AD0008F939F93AF93BF93EF93FF9387E793E039
:100AE0000E94A302FF91EF91BF91AF919F918F91CF
:100AF0007F916F915F914F913F912F910F900BBE1E
:100B00000F900FBE0F901F9018951F920F920FB667
:100B10000F9211240BB60F922F938F939F93EF9305
:100B2000FF93E0918703F09188038081E0918D032A
:100B3000F0918E0382FD1DC09081809190038F5FA4
:100B40008F7320919103821741F0E0919003F0E0C0
:100B5000E958FC4F958F80939003FF91EF919F91FF
:100B60008F912F910F900BBE0F900FBE0F901F9083
:100B700018958081F2CF1F920F920FB60F92112419
:100B80002F933F938F939F93AF93BF9380916F0366
:100B900090917003A0917103B091720330916E0334
:100BA00023E0230F2D3758F50196A11DB11D209389
:100BB0006E0380936F0390937003A0937103B093BF
:100BC00072038091730390917403A0917503B091A7
:100BD00076030196A11DB11D809373039093740356
:100BE000A0937503B0937603BF91AF919F918F91BE
:100BF0003F912F910F900FBE0F901F90189526E8F0
:100C0000230F0296A11DB11DD2CF1F920F920FB6D6
:100C10000F9211240BB60F922F933F934F935F9334
:100C20006F937F938F939F93AF93BF93EF93FF93B4
:100C300048E251E064E271E090E080E00E94490403
:100C4000FF91EF91BF91AF919F918F917F916F91A4
:100C50005F914F913F912F910F900BBE0F900FBE60
:100C60000F901F9018951F920F920FB60F9211249C
:100C70000BB60F922F933F934F935F936F937F9396
:100C80008F939F93AF93BF93EF93FF9348EA50E006
:100C900064EA70E083E090E00E944904FF91EF91E4
:100CA000BF91AF919F918F917F916F915F914F9184
:100CB0003F912F910F900BBE0F900FBE0F901F9082
:100CC00018951F920F920FB60F9211240BB60F9228
:100CD0002F933F934F935F936F937F938F939F9344
:100CE000AF93BF93EF93FF9348E950E064E970E05E
:100CF00082E090E00E944904FF91EF91BF91AF9193
:100D00009F918F917F916F915F914F913F912F9123
:100D10000F900BBE0F900FBE0F901F9018951F9253
:100D20000F920FB60F9211240BB60F922F933F9391
:100D30004F935F936F937F938F939F93AF93BF93E3
:100D4000EF93FF9348E850E064E870E081E090E0C2
:100D50000E944904FF91EF91BF91AF919F918F91B4
:100D60007F916F915F914F913F912F910F900BBEAB
:100D70000F900FBE0F901F90189510927A0310924B
:100D8000790388EE93E0A0E0B0E080937B0390933A
:100D90007C03A0937D03B0937E038BE092E090935D
:100DA00078038093770385EC90E09093840380939D
:100DB000830384EC90E0909386038093850380EC1A
:100DC00090E0909388038093870381EC90E0909368
:100DD0008A038093890382EC90E090938C03809344
:100DE0008B0386EC90E090938E0380938D0310929A
:100DF0009003109291031092920310929303109219
:100E0000A9041092A8041092AB041092AA041092A4
:100E1000AD041092AC0490E080E00E942D0520917A
:100E2000A8043091A904811129C02115310519F0B8
:100E3000C9010E94000B1092A9041092A8041092FC
:100E4000AD041092AC041092AB041092AA048091ED
:100E5000A4048033E8F491E0980F9093A404809365
:100E6000A50490E0FC01EE0FFF1FE80FF91FEC5EF8
:100E7000FB4F88EB9BE09283818308951092AD0431
:100E80001092AC0469E272E0C9010E94730CDFCFDA
:100E90008FEF8093A5040895CF93DF931F921F9245
:100EA000CDB7DEB7789484B5826084BD84B58160A7
:100EB00084BD85B5826085BD85B5816085BD809125
:100EC0006E00816080936E0010928100809181009D
:100ED0008260809381008091810081608093810095
:100EE000809180008160809380008091B100846057
:100EF0008093B1008091B00081608093B0008091B8
:100F00009100826080939100809191008160809334
:100F10009100809190008160809390008091A10069
:100F200082608093A1008091A10081608093A100E4
:100F30008091A00081608093A00080912101826057
:100F40008093210180912101816080932101809112
:100F5000200181608093200180917A0084608093D9
:100F60007A0080917A00826080937A0080917A0082
:100F7000816080937A0080917A00806880937A0003
:100F80001092C100E0918703F091880382E0808392
:100F9000E0918303F09184031082E0918503F09146
:100FA00086038FEC808310928F03E0918B03F09186
:100FB0008C0386E08083E0918903F0918A0380812D
:100FC00080618083E0918903F0918A038081886049
:100FD0008083E0918903F0918A0380818068808317
:100FE000E0918903F0918A0380818F7D80838AE27A
:100FF00092E00E9403058091A504803308F06AC046
:10100000EFE0F2E02491E9ECF1E08491882399F09B
:1010100090E0880F991FFC01E455FE4FA591B49113
:10102000FC01EE56FE4F859194918FB7F894EC91A8
:10103000E22BEC938FBF8091A504282F30E0F901BB
:10104000EE0FFF1FE20FF31FEC5EFB4F9081907CD1
:101050009360908392EF9093A6041092A7042CE0E3
:10106000622F0E94500A829FB001112430E020E0DC
:10107000AB01420F531FFA01EE0FFF1FE40FF51FE4
:10108000EC5EFB4F908196FD17C02F5F3F4F2C30D9
:10109000310571F7813009F06FC01092800082E055
:1010A000809381001092850010928400B19A809103
:1010B0006F00826080936F00E091A5048E2F90E016
:1010C000FC01EE0FFF1FE80FF91FEC5EFB4F808164
:1010D0008064808390E080E00E945E01FF24F394AE
:1010E000809100028823D1F085E592E00E940305FB
:1010F0008EE992E00E94030582EB92E00E940305D4
:1011000085EC92E00E94030588ED92E00E940305C1
:101110008CEE92E00E9403051092000287E793E0B4
:101120000E948D02892B09F453C00E94140487E7A2
:1011300093E00E946B0289831A820091AC041091A3
:10114000AD040F5F1F4FC8010E942D05882331F3A6
:101150002091A8043091A9048091AC049091AD0431
:10116000BE016F5F7F4F820F931F0E94730C10931D
:10117000AD040093AC04D2CF823061F410929000A1
:1011800080939100109295001092940088BB8093F8
:10119000710092CF833069F41092A00082E08093B6
:1011A000A1001092A5001092A40089BB8093720048
:1011B00083CF811181CF1092200182E080932101A1
:1011C00010922501109224018ABB8093730074CF82
:1011D0008091A8049091A9040097D1F10E94B109CF
:1011E00061157105B1F0AB01415051094530510510
:1011F00008F09FC06330710509F471C06CF561306F
:10120000710509F444C06230710509F453C0F092CD
:10121000000290E080E00E942D052091A80430910A
:10122000A90481118BC02115310519F0C9010E9453
:10123000000B1092A9041092A8041092AD04109211
:10124000AC041092AB041092AA040E94320348CF5F
:1012500060E070E0CB01C4CF6430710509F454C084
:1012600065307105A1F60E94140484EB90E00E94A1
:101270005E010E9420058DE493E00E9403050E9418
:10128000C301843B91051CF68CE193E0F6CF0E94EC
:10129000140490E080E00E945E010E94200580E03E
:1012A00093E00E9403050E94C30197FFB0CF8CE139
:1012B00093E0F7CF0E94140481E490E00E945E0165
:1012C0000E9420058BE293E00E9403050E94C30167
:1012D000813491050CF09BCF8CE193E0F5CF0E9417
:1012E00014048AE590E00E945E010E94200586E3D6
:1012F00093E00E9403050E94C3018A3591050CF01A
:1013000086CF8CE193E0F5CF0E9414048DE790E046
:101310000E945E010E94200581E493E00E94030583
:101320000E94C3018D3791050CF071CF8CE193E0E1
:10133000F5CF89E593E00E94030569CF1092AD04D3
:101340001092AC0469E272E0C9010E94730C7DCF77
:101350008091A8049091A904009711F00C94000BBF
:1013600008951F93FC0199278827BC01E8941191E7
:101370001032E9F3193010F01E30C8F31B3251F06F
:101380001D3249F4689406C00E94D809610F711D8E
:10139000811D911D119110531A30B0F33EF49095B8
:1013A0008095709561957F4F8F4F9F4F1F91089546
:1013B000592F482F372F262F660F771F881F991F09
:1013C000660F771F881F991F620F731F841F951F59
:1013D000660F771F881F991F0895052E97FB1EF42F
:1013E00000940E94040A57FD07D00E941F0A07FCC0
:1013F00003D04EF40C94040A5095409530952195F5
:101400003F4F4F4F5F4F0895909580957095619530
:101410007F4F8F4F9F4F08950E94410AA59F900DC7
:10142000B49F900DA49F800D911D11240895B7FFC6
:101430000C940C0A0E940C0A821B930B0895A1E2E3
:101440001A2EAA1BBB1BFD010DC0AA1FBB1FEE1F3E
:10145000FF1FA217B307E407F50720F0A21BB30B89
:10146000E40BF50B661F771F881F991F1A9469F705
:1014700060957095809590959B01AC01BD01CF0161
:101480000895A29FB001B39FC001A39F700D811D5D
:101490001124911DB29F700D811D1124911D08957D
:1014A000991B79E004C0991F961708F0961B881FB6
:1014B0007A95C9F780950895EE0FFF1F881F8BBF9F
:1014C0000790F691E02D19940F931F93CF93DF931C
:1014D0008230910510F482E090E0E091B004F09148
:1014E000B10430E020E0B0E0A0E0309799F421159D
:1014F000310509F44AC0281B390B24303105D8F5D1
:101500008A819B816115710589F1FB019383828337
:10151000FE0111C040815181028113814817590792
:10152000E0F04817590799F4109761F012960C9360
:10153000129713961C933296CF01DF91CF911F9192
:101540000F9108950093B0041093B104F4CF2115C6
:10155000310551F04217530738F0A901DB019A0118
:10156000BD01DF01F801C1CFEF01F9CF9093B104C4
:101570008093B004CDCFFE01E20FF31F81939193CE
:101580002250310939832883D7CF2091AE0430917E
:10159000AF04232B41F420910302309104023093D5
:1015A000AF042093AE042091010230910202211574
:1015B000310541F42DB73EB7409105025091060226
:1015C000241B350BE091AE04F091AF04E217F30752
:1015D000A0F42E1B3F0B2817390778F0AC014E5FA3
:1015E0005F4F2417350748F04E0F5F1F5093AF042D
:1015F0004093AE04819391939FCFF0E0E0E09CCFC5
:10160000CF93DF930097E9F0FC01329713821282A7
:10161000A091B004B091B104ED0130E020E010974A
:10162000A1F420813181820F931F2091AE0430916B
:10163000AF042817390709F061C0F093AF04E093B5
:10164000AE04DF91CF910895EA01CE17DF07E8F5E8
:101650004A815B819E0141155105B1F7E901FB8388
:10166000EA8349915991C40FD51FEC17FD0761F426
:10167000808191810296840F951FE9019983888367
:10168000828193819B838A83F0E0E0E012968D91C2
:101690009C9113970097B9F52D913C911197CD012D
:1016A0000296820F931F2091AE043091AF04281749
:1016B000390739F6309751F51092B1041092B00401
:1016C000B093AF04A093AE04BCCFD383C283408158
:1016D0005181840F951FC817D90761F44E5F5F4F82
:1016E00088819981480F591F518340838A819B814A
:1016F000938382832115310509F0B0CFF093B104B3
:10170000E093B0049ECFFD01DC01C0CF13821282B2
:10171000D7CF4F925F926F927F928F929F92AF92AC
:10172000BF92CF92DF92EF92FF920F931F93CF93CE
:10173000DF938C01009799F4CB01DF91CF911F913A
:101740000F91FF90EF90DF90CF90BF90AF909F9060
:101750008F907F906F905F904F900C94640AFC0183
:10176000E60FF71F9C0122503109E217F30708F436
:10177000AEC0D901CD91DC911197C617D70720F1E2
:10178000C530D10578F0CE0104978617970750F041
:10179000C61BD70B2297C193D1936D937C93CF0136
:1017A0000E94000BC801DF91CF911F910F91FF9014
:1017B000EF90DF90CF90BF90AF909F908F907F90F1
:1017C0006F905F904F9008955B01AC1ABD0A4C0179
:1017D0008C0E9D1EA091B004B091B104512C412CEF
:1017E000F12CE12C109731F58091AE049091AF046B
:1017F0008815990509F05CC04616570608F058C0D0
:101800008091010290910202009741F48DB79EB73A
:101810004091050250910602841B950BE817F907C9
:1018200008F055C0F093AF04E093AE04F901718362
:101830006083B8CF8D919C91119712966C901297FE
:1018400013967C901397A815B90559F56C0142E0E1
:10185000C40ED11CCA14DB0420F1AC014A195B0987
:10186000DA011296159780F0628273825183408369
:10187000D9016D937C93E114F10471F0D7011396B3
:10188000FC93EE9312978ECF22968C0F9D1FF90139
:1018900091838083F301EFCFF093B104E093B00420
:1018A00081CF4816590608F42C017D01D3019ACF47
:1018B000CB010E94640A7C01009749F0AE01B80197
:1018C0000E946A0CC8010E94000B87016BCF10E0D8
:1018D00000E068CFFB01DC0102C001900D92415095
:1018E0005040D8F70895FB01DC0101900D920020D3
:1018F000E1F7089511E0CAE2D1E000E006C0802FD0
:10190000FE010E945C0A2196011DCB32D10780E0C6
:081910000807A9F7F894FFCFC6
:10191800010000B204800000000000C5022F025C34
:101928000212038D026B027F020D0A000A0A0A0ADC
:101938000A0A0A0A0A0A0A0A0A002B2B2B2B2B2B43
:101948002B436F6E74726F6C2D536572766F2065C2
:101958006E20477261646F732B2B2B2B2B2B2B2B39
:101968002B2B2B2B002D2D2D2D2D2D2D2D2D2D2DD4
:101978002D2D2D2D2D2D2D2D20435552534F2041EA
:10198800524455494E4F202D20434F4E54524F4CF0
:1019980020534552564F4D4F544F52202D2D2D2D2B
:1019A8002D2D2D2D2D2D2D2D2D2D2D2D2D0031298C
:1019B80020506F736963696F6E20496E696369614E
:1019C8006C003229204D6F7665722036352067729B
:1019D80061646F73003329204D6F7665722039304A
:1019E80020677261646F73003429204D6F766572C9
:1019F8002031323520677261646F73003529204DBC
:101A08006F7665722031383020677261646F7300B9
:101A1800203020475241444F5328706F73696369DF
:101A28006F6E20696E696369616C29004465737023
:101A38006C617A616E646F2E2E2E00203635204739
:101A48005241444F530020393020475241444F53AC
:101A5800002031323520475241444F53002031385D
:101A68003020475241444F53004F5043494F4E2076
:0A1A7800494E56414C49444100001C
:00000001FF
