:100000000C9462000C948A000C948A000C948A0070
:100010000C948A000C948A000C948A000C948A0038
:100020000C948A000C948A000C948A000C948A0028
:100030000C948A000C948A000C948A000C948A0018
:100040000C9407030C948A000C948A000C948A0088
:100050000C948A000C948A000C948A000C948A00F8
:100060000C948A000C948A000000000024002700F1
:100070002A0000000000250028002B0000000000DE
:1000800023002600290004040404040404040202DA
:100090000202020203030303030301020408102007
:1000A0004080010204081020010204081020000012
:1000B0000008000201000003040700000000000027
:1000C0000000230511241FBECFEFD8E0DEBFCDBF57
:1000D00011E0A0E0B1E0EAE6FEE002C005900D927A
:1000E000AE32B107D9F721E0AEE2B1E001C01D9216
:1000F000A935B207E1F710E0C2E6D0E004C02197CD
:10010000FE010E942D07C136D107C9F70E94510395
:100110000C9433070C940000AF92BF92CF92DF9201
:10012000EF92FF920F931F93CF93DF936C017B01AC
:100130008B01040F151FEB015E01AE18BF08C0173D
:10014000D10759F06991D601ED91FC910190F081B0
:10015000E02DC6010995892B79F7C501DF91CF9173
:100160001F910F91FF90EF90DF90CF90BF90AF90D5
:100170000895833081F028F4813099F08230A9F01D
:1001800008958730A9F08830C9F08430B1F48091A7
:1001900080008F7D03C0809180008F7780938000E6
:1001A000089584B58F7784BD089584B58F7DFBCF86
:1001B0008091B0008F778093B00008958091B00057
:1001C0008F7DF9CFCF93DF93282F30E0F901E255EF
:1001D000FF4F8491F901E656FF4FD491F901EA5798
:1001E000FF4FC491CC23A1F081110E94B900EC2FE4
:1001F000F0E0EE0FFF1FE458FF4FA591B491EC9192
:10020000ED2381E090E009F480E0DF91CF91089543
:1002100080E090E0FACF1F93CF93DF93282F30E058
:10022000F901E255FF4F8491F901E656FF4FD49151
:10023000F901EA57FF4FC491CC23A9F0162F811181
:100240000E94B900EC2FF0E0EE0FFF1FEE58FF4FB9
:10025000A591B4918FB7F894EC91111108C0D09585
:10026000DE23DC938FBFDF91CF911F910895DE2BAA
:10027000F8CFCF93DF9390E0FC01E656FF4F249137
:100280008A579F4FFC0184918823D1F090E0880F1A
:10029000991FFC01E859FF4FA591B491FC01EE585C
:1002A000FF4FC591D491623071F49FB7F8943C919F
:1002B000822F809583238C93E8812E2B28839FBFE8
:1002C000DF91CF9108958FB7F894EC912E2B2C935A
:1002D0008FBFF6CF089590E080E00895FC01019073
:1002E0000020E9F73197AF01481B590BBC0181E4AD
:1002F00091E00C948C008F929F92AF92BF920F93DB
:100300001F93CF93DF93CDB7DEB7A1970FB6F894C5
:10031000DEBF0FBECDBF19A2423008F44AE08E0105
:100320000F5D1F4F842E912CB12CA12CA50194019F
:100330000E940B07E62FB901CA01EA30F4F4E05D30
:10034000D801EE938D01232B242B252B79F790E0F8
:1003500080E0109719F0CD010E946E01A1960FB6B2
:10036000F894DEBF0FBECDBFDF91CF911F910F91EB
:10037000BF90AF909F908F900895E95CE1CFCF93AD
:10038000DF93EC0160E08E810E940B0161E08E81C1
:100390000E940B0160E08E810E940B018BE891E0CE
:1003A0000197F1F7DF91CF910895CF92DF92EF920D
:1003B000FF920F931F93CF93DF936C017C0187E033
:1003C000E80EF11CD0E0C0E0062F10E0B8010C2EC2
:1003D00002C0759567950A94E2F76170F701819103
:1003E0007F010E940B012196C430D10579F7C60127
:1003F000DF91CF911F910F91FF90EF90DF90CF9001
:100400000C94BF01CF92DF92EF92FF920F931F9354
:10041000CF93DF93EC01F62E642F8C810E940B01A9
:100420008D818F3F19F060E00E940B010F2D10E0CD
:100430008F8584FF25C06E0187E0C80ED11CF12C8A
:10044000E12CB8010E2C02C0759567950A94E2F76D
:100450006170F60181916F010E940B01FFEFEF1AAD
:10046000FF0A88E0E816F10461F7CE01DF91CF9131
:100470001F910F91FF90EF90DF90CF900C94BF01F0
:10048000B80184E0759567958A95E1F7CE010E94E1
:10049000D5016F2DCE01DF91CF911F910F91FF906C
:1004A000EF90DF90CF900C94D50140E0682F81E46D
:1004B00091E00C940202CF93DF93823029F4909163
:1004C000500198609093500180935401109255010F
:1004D00080E48093560180E18093570180E580930A
:1004E000580161E0809145010E94390180914601E7
:1004F0008F3F19F061E00E94390161E0809147016E
:100500000E943901C1E4D1E09E0121543140809123
:10051000500184FD0BC084E090E021962817390734
:1005200044F461E08E810E943901EECF88E090E0D2
:10053000F4CF8BE39DE00197F1F760E080914501F6
:100540000E940B0160E0809147010E940B018091A5
:1005500046018F3F19F060E00E940B01809150012D
:1005600084FD39C063E081E491E00E94D501CBE4D1
:10057000D6E4CE010197F1F763E081E491E00E94B7
:10058000D5012197F1F763E081E491E00E94D50164
:1005900083E592E00197F1F762E081E491E00E9447
:1005A000D5018091500180620E94550284E08093C1
:1005B00051018CE00E94550281E00E9455028BE3BC
:1005C0009FE10197F1F782E08093520186E0DF918D
:1005D000CF910C94550280620E9455028BE496E400
:1005E0000197F1F78091500180620E94550283E5E6
:1005F00092E00197F1F78091500180620E945502CC
:10060000D0CF41E00E94020281E090E008951F9265
:100610000F920FB60F9211242F933F938F939F93B6
:10062000AF93BF938091330190913401A091350134
:10063000B09136013091320123E0230F2D3758F568
:100640000196A11DB11D2093320180933301909337
:100650003401A0933501B093360180912E01909121
:100660002F01A0913001B09131010196A11DB11D62
:1006700080932E0190932F01A0933001B09331010C
:10068000BF91AF919F918F913F912F910F900FBE8E
:100690000F901F90189526E8230F0296A11DB11DFB
:1006A000D2CF789484B5826084BD84B5816084BDE6
:1006B00085B5826085BD85B5816085BD80916E0000
:1006C000816080936E001092810080918100826031
:1006D000809381008091810081608093810080916E
:1006E00080008160809380008091B100846080935D
:1006F000B1008091B00081608093B00080917A0059
:10070000846080937A0080917A00826080937A007E
:1007100080917A00816080937A0080917A0080686D
:1007200080937A001092C10062E082E00E94390159
:1007300062E083E00E94390161E087E00E943901B4
:1007400061E086E00E94390161E085E00E943901A4
:1007500082E00E945B028CE091E00E946E0182E0E8
:100760000E94E20090933E0180933D0103EB10E074
:10077000CBE4D0E08BE4982E90E0A92E90E0B92E47
:1007800061E087E00E940B0160E086E00E940B01BF
:1007900061E085E00E943901F8018491833009F419
:1007A0009CC050F48130D1F0823009F491C060E0F7
:1007B00085E00E940B0116C0873009F498C088308C
:1007C00009F49DC0843099F7809180008062809305
:1007D0008000D0938B00C0938A0004C084B58068E9
:1007E00084BD97BC82E00E94E2006C0190934001BE
:1007F00080933F0180913D0190913E01C816D9063A
:1008000091F0E0903B01F0903C0183E00E94E20017
:10081000C816D90609F47BC0FFEFEF1AFF0AF09261
:100820003C01E0923B0160913B0170913C01072E3D
:10083000000C880B990B0E94E4052EEB3FE942E087
:100840005FE30E9499066B017C01C0923701D09250
:100850003801E0923901F0923A01E0915401E2301E
:1008600008F059C0E150F0E0EF5BFE4F84898068EA
:100870000E945502A7019601C701B6010E94060712
:10088000882309F44AC08DE191E00E946E01E09155
:100890005401E23008F0D5C0E150F0E0EF5BFE4FCC
:1008A00084898B5F80680E94550289E291E00E94F2
:1008B0006E0180913F019091400190933E018093A1
:1008C0003D01A114B10409F45BCF0E94000058CF90
:1008D00084B5806284BD98BC85CF8091800080689B
:1008E00080938000D0938900C09388007BCF809153
:1008F000B00080688093B0009092B30073CF809175
:10090000B00080628093B0009092B4006BCF81E021
:10091000E81AF10884CFE1E0A6CF26013701E89478
:1009200077F82FEF3FEF4FE75FE7C301B2010E9477
:10093000060781110DC02FEF3FEF4FE75FE7C301BF
:10094000B2010E94AE0518161CF481E291E09DCF21
:100950002FEF3FEF4FE75FE4C701B6010E94940617
:1009600018161CF485E291E090CF2FEF3FEF4FE790
:100970005FECC701B6010E94AE0587FDF3CF20E012
:1009800030E0A901C701B6010E94AE0587FF0AC089
:1009900041E06DE281E491E00E940202F7FAF094F6
:1009A000F7F8F0942AE037ED43EA5BE3C701B601BC
:1009B0000E9442052B013C010E94B3056B017C01A2
:1009C0000E94E2059B01AC01C301B2010E944105F6
:1009D0002B013C014AE0C701B6010E947B0141E0C6
:1009E0006EE281E491E00E94020220E030E040E209
:1009F00051E4C301B2010E9499062B013C010E94FF
:100A0000B3056B01F12CE12C4AE0C701B6010E944D
:100A10007B01C701B6010E94E2059B01AC01C30145
:100A2000B2010E94410520E030E040E251E40E9422
:100A300099060E94B30590E080E04AE00E947B01A5
:100A400026CFE1E02ACFE1E4F1E01382128284E0D4
:100A500091E0918380838EE084838FEF85838DE0A6
:100A600086838CE087838BE080878AE0818789E0BA
:100A700082871386148615861686178681E00C9465
:100A80005B025058BB27AA270E9459050C945A06AE
:100A90000E944C0638F00E94530620F039F49F3F24
:100AA00019F426F40C9449060EF4E095E7FB0C9437
:100AB0004306E92F0E946B0658F3BA1762077307C3
:100AC0008407950720F079F4A6F50C948D060EF4B2
:100AD000E0950B2EBA2FA02D0B01B90190010C014E
:100AE000CA01A0011124FF27591B99F0593F50F466
:100AF000503E68F11A16F040A22F232F342F4427BE
:100B0000585FF3CF469537952795A795F0405395B5
:100B1000C9F77EF41F16BA0B620B730B840BBAF085
:100B20009150A1F0FF0FBB1F661F771F881FC2F7F0
:100B30000EC0BA0F621F731F841F48F48795779504
:100B40006795B795F7959E3F08F0B0CF9395880FBE
:100B500008F09927EE0F9795879508950E941F0634
:100B600008F481E008950E94730688F09F5798F07A
:100B7000B92F9927B751B0F0E1F0660F771F881FA2
:100B8000991F1AF0BA95C9F714C0B13091F00E94BC
:100B90008D06B1E008950C948D06672F782F882775
:100BA000B85F39F0B93FCCF3869577956795B395E3
:100BB000D9F73EF490958095709561957F4F8F4F52
:100BC0009F4F0895E89409C097FB3EF49095809557
:100BD000709561957F4F8F4F9F4F9923A9F0F92F03
:100BE00096E9BB279395F695879577956795B79581
:100BF000F111F8CFFAF4BB0F11F460FF1BC06F5F67
:100C00007F4F8F4F9F4F16C0882311F096E911C078
:100C1000772321F09EE8872F762F05C0662371F099
:100C200096E8862F70E060E02AF09A95660F771FAD
:100C3000881FDAF7880F9695879597F90895990F89
:100C40000008550FAA0BE0E8FEEF16161706E80796
:100C5000F907C0F012161306E407F50798F0621BB7
:100C6000730B840B950B39F40A2661F0232B242B8C
:100C7000252B21F408950A2609F4A140A6958FEFAB
:100C8000811D811D089597F99F6780E870E060E0FD
:100C900008959FEF80EC089500240A941616170615
:100CA00018060906089500240A941216130614065D
:100CB00005060895092E0394000C11F4882352F0C0
:100CC000BB0F40F4BF2B11F460FF04C06F5F7F4F78
:100CD0008F4F9F4F089557FD9058440F551F59F05F
:100CE0005F3F71F04795880F97FB991F61F09F3F19
:100CF00079F087950895121613061406551FF2CF42
:100D00004695F1DF08C0161617061806991FF1CF91
:100D100086957105610508940895E894BB276627B8
:100D20007727CB0197F908950E941F0608F48FEFEB
:100D300008950E94AC060C945A060E944C0638F0A6
:100D40000E94530620F0952311F00C9443060C9456
:100D5000490611240C948E060E946B0670F3959F31
:100D6000C1F3950F50E0551F629FF001729FBB27A2
:100D7000F00DB11D639FAA27F00DB11DAA1F649F3E
:100D80006627B00DA11D661F829F2227B00DA11DF1
:100D9000621F739FB00DA11D621F839FA00D611D77
:100DA000221F749F3327A00D611D231F849F600D98
:100DB000211D822F762F6A2F11249F5750409AF0C1
:100DC000F1F088234AF0EE0FFF1FBB1F661F771F4D
:100DD000881F91505040A9F79E3F510580F00C9418
:100DE00043060C948E065F3FE4F3983ED4F3869559
:100DF00077956795B795F795E7959F5FC1F7FE2BB8
:100E0000880F911D9695879597F908950E941F0662
:100E1000880B990B0895A1E21A2EAA1BBB1BFD019A
:100E20000DC0AA1FBB1FEE1FFF1FA217B307E407C9
:100E3000F50720F0A21BB30BE40BF50B661F771F21
:100E4000881F991F1A9469F7609570958095909501
:100E50009B01AC01BD01CF010895EE0FFF1F05906E
:0A0E6000F491E02D0994F894FFCFFF
:100E6A000000000001038C006B016A014D454153EB
:100E7A0055524E494E4720574845454C006E616EC3
:0E0E8A0000696E66006F766600636D202000C2
:00000001FF
